{
	"data": {
		"bytecode": {
			"linkReferences": {},
			"object": "6080604052348015600e575f80fd5b506134408061001c5f395ff3fe608060405234801561000f575f80fd5b5060043610610060575f3560e01c806307fca93c146100645780632a5104361461008257806341493c60146100a05780636b61d8e7146100bc5780637e4f7a8a146100ec578063ffa1ad741461011c575b5f80fd5b61006c61013a565b6040516100799190612d69565b60405180910390f35b61008a610148565b6040516100979190612d9a565b60405180910390f35b6100ba60048036038101906100b59190612e46565b610171565b005b6100d660048036038101906100d19190612ed7565b610393565b6040516100e39190612d9a565b60405180910390f35b61010660048036038101906101019190612f77565b610410565b604051610113919061300f565b60405180910390f35b610124612cf2565b6040516101319190613098565b60405180910390f35b5f610143610148565b905090565b5f7fc865c1b60c05baa44075f37d6d88f2e18c64effb9113740b47cdf12b711b8aa45f1b905090565b5f82825f90600492610185939291906130c0565b906101909190613110565b90505f61019b610148565b9050807bffffffffffffffffffffffffffffffffffffffffffffffffffffffff1916827bffffffffffffffffffffffffffffffffffffffffffffffffffffffff1916146102215781816040517f988066a100000000000000000000000000000000000000000000000000000000815260040161021892919061316e565b60405180910390fd5b5f61022c8787610393565b90505f600267ffffffffffffffff81111561024a57610249613195565b5b6040519080825280602002602001820160405280156102785781602001602082028036833780820191505090505b509050885f1c815f81518110610291576102906131c2565b5b602002602001018181525050815f1c816001815181106102b4576102b36131c2565b5b6020026020010181815250505f3073ffffffffffffffffffffffffffffffffffffffff16637e4f7a8a888860049080926102f0939291906130c0565b856040518463ffffffff1660e01b815260040161030f939291906132f9565b602060405180830381865afa15801561032a573d5f803e3d5ffd5b505050506040513d601f19601f8201168201806040525081019061034e919061335a565b905080610387576040517f09bde33900000000000000000000000000000000000000000000000000000000815260040160405180910390fd5b50505050505050505050565b5f7f1fffffffffffffffffffffffffffffffffffffffffffffffffffffffffffffff5f1b600284846040516103c99291906133b3565b602060405180830381855afa1580156103e4573d5f803e3d5ffd5b5050506040513d601f19601f8201168201806040525081019061040791906133df565b16905092915050565b5f604051610240810161042284610854565b61042c8585610868565b610435866108ba565b61043e876108d7565b5f61044a86868a610a85565b905061045581610dcb565b90506104618189610e32565b905061046d8189610ec7565b60608301517f30644e72e131a029b85045b68181585d2833e84879b9709143e1f593f000000160017f30644e72e131a029b85045b68181585d2833e84879b9709143e1f593f0000001036104c685630200000085612c89565b08806101c08601526104d984888a610f35565b6104e485898d611296565b7f30644e72e131a029b85045b68181585d2833e84879b9709143e1f593f00000018282089150816101a088015261051961164c565b6105228c612820565b61052b8c612760565b6105348c61235b565b61053d8c611e59565b6105468c611bb0565b61054f8c6117a0565b6102008701519750612ce3565b6040517f08c379a000000000000000000000000000000000000000000000000000000000815260206004820152601d60248201527f77726f6e67206e756d626572206f66207075626c696320696e707574730000006044820152606481fd5b6040517f08c379a000000000000000000000000000000000000000000000000000000000815260206004820152601260248201527f6572726f72206563206f7065726174696f6e00000000000000000000000000006044820152606481fd5b6040517f08c379a000000000000000000000000000000000000000000000000000000000815260206004820152601860248201527f696e707574732061726520626967676572207468616e207200000000000000006044820152606481fd5b6040517f08c379a000000000000000000000000000000000000000000000000000000000815260206004820152601060248201527f77726f6e672070726f6f662073697a65000000000000000000000000000000006044820152606481fd5b6040517f08c379a000000000000000000000000000000000000000000000000000000000815260206004820152601660248201527f6f70656e696e677320626967676572207468616e2072000000000000000000006044820152606481fd5b6040517f08c379a000000000000000000000000000000000000000000000000000000000815260206004820152600d60248201527f6572726f722070616972696e67000000000000000000000000000000000000006044820152606481fd5b6040517f08c379a000000000000000000000000000000000000000000000000000000000815260206004820152600c60248201527f6572726f722076657269667900000000000000000000000000000000000000006044820152606481fd5b6040517f08c379a000000000000000000000000000000000000000000000000000000000815260206004820152601460248201527f6572726f722072616e646f6d2067656e206b7a670000000000000000000000006044820152606481fd5b600281146108655761086461055c565b5b50565b5f5b818110156108b5577f30644e72e131a029b85045b68181585d2833e84879b9709143e1f593f0000000833511156108a4576108a361061a565b5b60208301925060018101905061086a565b505050565b6060600102610300018082146108d3576108d2610679565b5b5050565b61018081017f30644e72e131a029b85045b68181585d2833e84879b9709143e1f593f00000008135111561090e5761090d6106d8565b5b6101a0820190507f30644e72e131a029b85045b68181585d2833e84879b9709143e1f593f000000081351115610947576109466106d8565b5b6101c0820190507f30644e72e131a029b85045b68181585d2833e84879b9709143e1f593f0000000813511156109805761097f6106d8565b5b6101e0820190507f30644e72e131a029b85045b68181585d2833e84879b9709143e1f593f0000000813511156109b9576109b86106d8565b5b610200820190507f30644e72e131a029b85045b68181585d2833e84879b9709143e1f593f0000000813511156109f2576109f16106d8565b5b610260820190507f30644e72e131a029b85045b68181585d2833e84879b9709143e1f593f000000081351115610a2b57610a2a6106d8565b5b610300820190505f5b6001811015610a80577f30644e72e131a029b85045b68181585d2833e84879b9709143e1f593f000000082351115610a6f57610a6e6106d8565b5b602082019150600181019050610a34565b505050565b5f60405161024081016467616d6d6181527f2706efcaf27fee06c1b6cff51ed3d6fa1a698ae589d9eda334b68fb5b2affd3060208201527f29b98211fca4d76ff8f1cef1ed55ae8f5482bf98a9b7acfbc192d14c1b538ce160408201527f2a19ddea94e1d5d2cc1f74d838c54c1cfb3e09829464520ce2f5c5c01f33b0a960608201527f160bf19ab232a0eb2dcfe41da72a964c469dcf10a38276746b7516c75a24be7760808201527ed6dbd0066cc13b995b7b9d226fd63b4beda3032d9bc61bd04db110bb47be2460a08201527f0336acc575090fd12f7cdd2a7fea266a8d8773f272849ac70d3e6d538ba31a7c60c08201527f2bf3f4dc363fc802d3352c6931541a153db647ebfb22db363c91a488f5cf72f360e08201527f176f8dfee5d5c0f5c2108136560594be5401829c32010a1b858e6f730fc669ff6101008201527f2b999cb720d2e11c81964ebab91945d314bfea28dfa3be6288c0836b542861346101208201527f11d6da8d1642d007c5bafbe0f35b2319f1784d2fdfe5f19bd267175f3a15195d6101408201527f1237d31040a0b49b48a56f6819d41636a947c687636b77a4b70ca821a04377aa6101608201527f1ace2d4dd12779be79fdb5074dbf0ea105341a38572878eb93899c2e6d51d1586101808201527f25d13c99e787f78227726f7360a5f45f219eaad4885fa9247b3df0e5dda331516101a08201527f077101f2bc8341c28f7f7189738411c949cb29203cf7d9f97138f8f37dbbcf656101c08201527f16b60a19c138871ba7e38f6df3e7d07df7588bb021f0cddb1fc651389efe7e3a6101e08201527f22da86a709aace21e60b9b6c34935142ba75a838dfa3e7e198fc71eb39e18ced6102008201527f194020f69d21bc903657a688f182302b7fb073ce4e0a2530bfda1ffa58b792fa6102208201527f132b4b05a659eb1c6164d8bf5093b1a6371a2a1b20694e5e6cb5a8c8be9d83f961024082015261026081016020860280888337808201915060c0808784378083019250816102c50160406001028101905060208582601b880160025afa80610d9157610d90610796565b5b855197507f30644e72e131a029b85045b68181585d2833e84879b9709143e1f593f000000188066040880152505050505050509392505050565b5f60405161024060405101636265746181528360208201526020816024601c840160025afa80610dfe57610dfd610796565b5b815193507f30644e72e131a029b85045b68181585d2833e84879b9709143e1f593f000000184066020840152505050919050565b5f60405161024060405101606564616c70686182526020820186815260208101905061032086016001604002808284378083019250808401935060406102208901843760208585601b880160025afa80610e8f57610e8e610796565b5b855197507f30644e72e131a029b85045b68181585d2833e84879b9709143e1f593f000000188065f8801525050505050505092915050565b60405161024060405101637a657461815283602082015260c0808401604083013760208160e4601c840160025afa80610f0357610f02610796565b5b81517f30644e72e131a029b85045b68181585d2833e84879b9709143e1f593f000000181066060850152505050505050565b5f60405160608101516101c082015186610f5181888486610fce565b5f805b88811015610fc1577f30644e72e131a029b85045b68181585d2833e84879b9709143e1f593f0000001883584510991507f30644e72e131a029b85045b68181585d2833e84879b9709143e1f593f00000018288089650602083019250602088019750600181019050610f54565b5050505050509392505050565b7f30644e72e131a029b85045b68181585d2833e84879b9709143e1f593f00000017f30644e5aaf0a66b91f8030da595e7d1c6787b9b45fc54c546729acf1ff05360983096001855f5b868110156110be577f30644e72e131a029b85045b68181585d2833e84879b9709143e1f593f0000001837f30644e72e131a029b85045b68181585d2833e84879b9709143e1f593f000000103860882527f30644e72e131a029b85045b68181585d2833e84879b9709143e1f593f00000017f2a734ebb326341efa19b0361d9130cd47b26b7488dc6d26eeccd4f3eb878331a84099250602082019150600181019050611017565b506110ca818789611186565b869050600191505f5b8681101561117c577f30644e72e131a029b85045b68181585d2833e84879b9709143e1f593f0000001837f30644e72e131a029b85045b68181585d2833e84879b9709143e1f593f0000001868551090982526020820191507f30644e72e131a029b85045b68181585d2833e84879b9709143e1f593f00000017f2a734ebb326341efa19b0361d9130cd47b26b7488dc6d26eeccd4f3eb878331a840992506001810190506110d3565b5050505050505050565b600183525f805b838110156111db5781850151828401517f30644e72e131a029b85045b68181585d2833e84879b9709143e1f593f000000181830990506020840193508084880152505060018101905061118d565b506020810382019150808401935061121b6020850160027f30644e72e131a029b85045b68181585d2833e84879b9709143e1f593f0000001038651612c89565b5f5b8481101561128e5760208603955083517f30644e72e131a029b85045b68181585d2833e84879b9709143e1f593f0000001875184098086527f30644e72e131a029b85045b68181585d2833e84879b9709143e1f593f00000018285099350602086039550505060018101905061121d565b505050505050565b5f60405160608101516101c082015161032085015f806112bc8a6020850135853561144d565b91506112d08a63010bdeb08b01868861130e565b90507f30644e72e131a029b85045b68181585d2833e84879b9709143e1f593f000000180828409880896506040830192505050505050509392505050565b5f61133a85857f2a734ebb326341efa19b0361d9130cd47b26b7488dc6d26eeccd4f3eb878331a612c89565b7f30644e72e131a029b85045b68181585d2833e84879b9709143e1f593f0000001817f30644e72e131a029b85045b68181585d2833e84879b9709143e1f593f000000103840894507f30644e72e131a029b85045b68181585d2833e84879b9709143e1f593f00000017f30644e5aaf0a66b91f8030da595e7d1c6787b9b45fc54c546729acf1ff053609820990506113f68660027f30644e72e131a029b85045b68181585d2833e84879b9709143e1f593f00000010387612c89565b94507f30644e72e131a029b85045b68181585d2833e84879b9709143e1f593f000000185820990507f30644e72e131a029b85045b68181585d2833e84879b9709143e1f593f0000001848209915050949350505050565b5f8084525f60208501528160408501528260608501525f6080850153603060818501535f60828501536042608385015360536084850153604260858501536032608685015360326087850153602d608885015360506089850153606c608a850153606f608b850153606e608c850153606b608d850153600b608e850153602084608f8660025afa806114e2576114e1610796565b5b8451600160208701536042602187015360536022870153604260238701536032602487015360326025870153602d602687015360506027870153606c6028870153606f6029870153606e602a870153606b602b870153600b602c870153602086602d8860025afa91508161155957611558610796565b5b808651186020870152600260408701536042604187015360536042870153604260438701536032604487015360326045870153602d604687015360506047870153606c6048870153606f6049870153606e604a870153606b604b870153600b604c87015360208601602081602d8360025afa9250826115db576115da610796565b5b7f30644e72e131a029b85045b68181585d2833e84879b9709143e1f593f00000017001000000000000000000000000000000008851099350602087015160801c7f30644e72e131a029b85045b68181585d2833e84879b9709143e1f593f00000018186089450505050509392505050565b604051610240604051016101c08201517f30644e72e131a029b85045b68181585d2833e84879b9709143e1f593f000000160017f30644e72e131a029b85045b68181585d2833e84879b9709143e1f593f0000001036060850151086116d58360027f30644e72e131a029b85045b68181585d2833e84879b9709143e1f593f00000010383612c89565b90507f30644e72e131a029b85045b68181585d2833e84879b9709143e1f593f00000017f30644e5aaf0a66b91f8030da595e7d1c6787b9b45fc54c546729acf1ff053609820990507f30644e72e131a029b85045b68181585d2833e84879b9709143e1f593f000000182820991505f8401517f30644e72e131a029b85045b68181585d2833e84879b9709143e1f593f000000181840992507f30644e72e131a029b85045b68181585d2833e84879b9709143e1f593f000000181840992508260808601525050505050565b60405161024081016101608201518152610180820151602082015261028083013560408201526102a08301356060820152610220830135608082015261024083013560a08201526102c083013560c08201526102e083013560e082015260608201516101008201526101e08201516101208201526020816101408360025afa8061182d5761182c6107f5565b5b7f30644e72e131a029b85045b68181585d2833e84879b9709143e1f593f000000182510690508160408101925061028085013581526102a0850135602082015261187d83836102c0880184612be1565b61016084016118928484610220890184612be1565b61014085016118a684610260890183612c37565b846040810195507f1fa4be93b5e7f7e674d5059b63554fab99638b304ed8310e9fa44c281ac9b03b81527f1a01ae7fac6228e39d3cb5a5e71fd31160f3241e79a5f48ffb3737e6c389b72160208201528151604082015260408160608360075afa8061191557611914610796565b5b6020820180517f30644e72e131a029b85045b68181585d97816a916871ca8d3c208c16d87cfd4703815261194b88848788612aad565b876040890198506119668960608c01516102808e0184612b5c565b7f30644e72e131a029b85045b68181585d2833e84879b9709143e1f593f00000017f2a734ebb326341efa19b0361d9130cd47b26b7488dc6d26eeccd4f3eb878331a60608c0151097f30644e72e131a029b85045b68181585d2833e84879b9709143e1f593f0000001818a0998506119e48a8a6102c08f0185612be1565b6119f08a83898a612aad565b6020880180517f30644e72e131a029b85045b68181585d97816a916871ca8d3c208c16d87cfd4703815287518b52602088015160208c01527f198e9393920d483a7260bfb731fb5d25f1aa493335a9e71297e485b7aef312c260408c01527f1800deef121f1e76426a00665e5c4479674322d4f75edadd46debd5cd992f6ed60608c01527f090689d0585ff075ec9e99ad690c3395bc4b313370b38ef355acdadcd122975b60808c01527f12c85ea5db8c6deb4aab71808dcb408fe3d1e7690c43d37b4ce6cc0166fa7daa60a08c0152885160c08c0152602089015160e08c01527f22f1acbb03c4508760c2430af35865e7cdf9f3eb1224504fdcc3708ddb954a486101008c01527f2a344fad01c2ed0ed73142ae1752429eaea515c6f3f6b941103cc21c2308e1cb6101208c01527f159f15b842ba9c8449aa3268f981010d4c7142e5193473d80b464e964845c3f86101408c01527f0efd30ac7b6f8d0d3ccbc2207587c2acbad1532dc0293f0d034cf8258cd428b36101608c0152611b768b611b85565b50505050505050505050505050565b60405160205f6101808460085afa80611ba157611ba0610737565b5b5f518061020084015250505050565b6040516102406040510160208101604082016101e084015180610160860160e0870151610160880152610100870151610180880152610120870151610140880152611c0386835f8b016101608b01612be1565b611c16826101808a016101408a01612c37565b7f30644e72e131a029b85045b68181585d2833e84879b9709143e1f593f00000018383099150611c4b868360408b0184612be1565b611c5e826101a08a016101408a01612c37565b7f30644e72e131a029b85045b68181585d2833e84879b9709143e1f593f00000018383099150611c93868360808b0184612be1565b611ca6826101c08a016101408a01612c37565b7f30644e72e131a029b85045b68181585d2833e84879b9709143e1f593f000000183830991507f2706efcaf27fee06c1b6cff51ed3d6fa1a698ae589d9eda334b68fb5b2affd3086527f29b98211fca4d76ff8f1cef1ed55ae8f5482bf98a9b7acfbc192d14c1b538ce18552611d1e84838884612b8f565b611d31826101e08a016101408a01612c37565b7f30644e72e131a029b85045b68181585d2833e84879b9709143e1f593f000000183830991507f2a19ddea94e1d5d2cc1f74d838c54c1cfb3e09829464520ce2f5c5c01f33b0a986527f160bf19ab232a0eb2dcfe41da72a964c469dcf10a38276746b7516c75a24be778552611da984838884612b8f565b611dbc826102008a016101408a01612c37565b61030088017f30644e72e131a029b85045b68181585d2833e84879b9709143e1f593f000000184840992507f194020f69d21bc903657a688f182302b7fb073ce4e0a2530bfda1ffa58b792fa87527f132b4b05a659eb1c6164d8bf5093b1a6371a2a1b20694e5e6cb5a8c8be9d83f98652611e3985848985612b8f565b611e4883826101408b01612c37565b602081019050505050505050505050565b604051610240604051016467616d6d6181526060820151602082015260e08201516040820152610100820151606082015260c05f840160808301377f2706efcaf27fee06c1b6cff51ed3d6fa1a698ae589d9eda334b68fb5b2affd306101408201527f29b98211fca4d76ff8f1cef1ed55ae8f5482bf98a9b7acfbc192d14c1b538ce16101608201527f2a19ddea94e1d5d2cc1f74d838c54c1cfb3e09829464520ce2f5c5c01f33b0a96101808201527f160bf19ab232a0eb2dcfe41da72a964c469dcf10a38276746b7516c75a24be776101a08201526101c07f194020f69d21bc903657a688f182302b7fb073ce4e0a2530bfda1ffa58b792fa818301527f132b4b05a659eb1c6164d8bf5093b1a6371a2a1b20694e5e6cb5a8c8be9d83f96020820183015260408101905061012083015181830152610180840135602082018301526101a0840135604082018301526101c0840135606082018301526101e08401356080820183015261020084013560a0820183015260c081018201610300850160206001028183376020600102820191506102608601358252601b600360010260140160208102600501905060206101e088018284890160025afa8061202557612024610796565b5b7f30644e72e131a029b85045b68181585d2833e84879b9709143e1f593f00000016101e0890151066101e0890152505050505050505050565b604051610240604051017f2bf3f4dc363fc802d3352c6931541a153db647ebfb22db363c91a488f5cf72f381527f176f8dfee5d5c0f5c2108136560594be5401829c32010a1b858e6f730fc669ff60208201526120c8604082016101808501358360e08601612b29565b7f2b999cb720d2e11c81964ebab91945d314bfea28dfa3be6288c0836b5428613481527f11d6da8d1642d007c5bafbe0f35b2319f1784d2fdfe5f19bd267175f3a15195d6020820152612128604082016101a08501358360e08601612b8f565b7f30644e72e131a029b85045b68181585d2833e84879b9709143e1f593f00000016101a0840135610180850135097f1237d31040a0b49b48a56f6819d41636a947c687636b77a4b70ca821a04377aa82527f1ace2d4dd12779be79fdb5074dbf0ea105341a38572878eb93899c2e6d51d15860208301526121b160408301828460e08701612b8f565b7f25d13c99e787f78227726f7360a5f45f219eaad4885fa9247b3df0e5dda3315182527f077101f2bc8341c28f7f7189738411c949cb29203cf7d9f97138f8f37dbbcf656020830152612211604083016101c08601358460e08701612b8f565b7f16b60a19c138871ba7e38f6df3e7d07df7588bb021f0cddb1fc651389efe7e3a82527f22da86a709aace21e60b9b6c34935142ba75a838dfa3e7e198fc71eb39e18ced602083015261226f604083018360e0860160e08701612aad565b610300840161032085015f5b60018110156122bc5781358552602082013560208601526122a56040860184358760e08a01612b8f565b60208301925060408201915060018101905061227b565b507ed6dbd0066cc13b995b7b9d226fd63b4beda3032d9bc61bd04db110bb47be2484527f0336acc575090fd12f7cdd2a7fea266a8d8773f272849ac70d3e6d538ba31a7c602085015261231760408501888660e08901612b8f565b6102208601358452610240860135602085015261233c60408501898660e08901612b8f565b6123518460a0870160e0880160e08901612aad565b5050505050505050565b6040516020810151604082015160608301515f8401517f30644e72e131a029b85045b68181585d2833e84879b9709143e1f593f000000184610260880135097f30644e72e131a029b85045b68181585d2833e84879b9709143e1f593f00000016101e088013586097f30644e72e131a029b85045b68181585d2833e84879b9709143e1f593f0000001610180890135820890507f30644e72e131a029b85045b68181585d2833e84879b9709143e1f593f000000185820890507f30644e72e131a029b85045b68181585d2833e84879b9709143e1f593f000000161020089013587097f30644e72e131a029b85045b68181585d2833e84879b9709143e1f593f00000016101a08a0135820890507f30644e72e131a029b85045b68181585d2833e84879b9709143e1f593f000000186820890507f30644e72e131a029b85045b68181585d2833e84879b9709143e1f593f00000018284097f30644e72e131a029b85045b68181585d2833e84879b9709143e1f593f000000182820990507f30644e72e131a029b85045b68181585d2833e84879b9709143e1f593f000000185820990507f30644e72e131a029b85045b68181585d2833e84879b9709143e1f593f0000001600580097f30644e72e131a029b85045b68181585d2833e84879b9709143e1f593f0000001878a097f30644e72e131a029b85045b68181585d2833e84879b9709143e1f593f00000016101808d0135820895507f30644e72e131a029b85045b68181585d2833e84879b9709143e1f593f000000189870895507f30644e72e131a029b85045b68181585d2833e84879b9709143e1f593f00000016005820994507f30644e72e131a029b85045b68181585d2833e84879b9709143e1f593f00000016101a08d0135860894507f30644e72e131a029b85045b68181585d2833e84879b9709143e1f593f000000189860894507f30644e72e131a029b85045b68181585d2833e84879b9709143e1f593f000000182820993507f30644e72e131a029b85045b68181585d2833e84879b9709143e1f593f00000016101c08d0135850893507f30644e72e131a029b85045b68181585d2833e84879b9709143e1f593f000000189850893507f30644e72e131a029b85045b68181585d2833e84879b9709143e1f593f00000018587097f30644e72e131a029b85045b68181585d2833e84879b9709143e1f593f00000018582099050807f30644e72e131a029b85045b68181585d2833e84879b9709143e1f593f00000010390507f30644e72e131a029b85045b68181585d2833e84879b9709143e1f593f000000188820990507f30644e72e131a029b85045b68181585d2833e84879b9709143e1f593f000000160808d01518208905061275181858f61205e565b50505050505050505050505050565b60405160026302000000016102406040510161278181836060860151612c89565b6127948282610140880160a08801612b5c565b6127aa82610100870160a0870160a08801612aeb565b6127bc828260a0870160a08801612b29565b6127d18260c0870160a0870160a08801612aeb565b6127e8826101c086015160a0870160a08801612b29565b60c0840151807f30644e72e131a029b85045b68181585d97816a916871ca8d3c208c16d87cfd470390508060c0860152505050505050565b6040515f7f30644e72e131a029b85045b68181585d2833e84879b9709143e1f593f000000160208301516101e08501350990507f30644e72e131a029b85045b68181585d2833e84879b9709143e1f593f00000016040830151820890507f30644e72e131a029b85045b68181585d2833e84879b9709143e1f593f0000001610180840135820890505f7f30644e72e131a029b85045b68181585d2833e84879b9709143e1f593f000000160208401516102008601350990507f30644e72e131a029b85045b68181585d2833e84879b9709143e1f593f00000016040840151820890507f30644e72e131a029b85045b68181585d2833e84879b9709143e1f593f00000016101a0850135820890505f7f30644e72e131a029b85045b68181585d2833e84879b9709143e1f593f000000160408501516101c08701350890507f30644e72e131a029b85045b68181585d2833e84879b9709143e1f593f000000182840992507f30644e72e131a029b85045b68181585d2833e84879b9709143e1f593f000000181840992507f30644e72e131a029b85045b68181585d2833e84879b9709143e1f593f00000015f850151840992507f30644e72e131a029b85045b68181585d2833e84879b9709143e1f593f0000001610260860135840992507f30644e72e131a029b85045b68181585d2833e84879b9709143e1f593f00000016101a08501518408925060808401519150817f30644e72e131a029b85045b68181585d2833e84879b9709143e1f593f00000010391507f30644e72e131a029b85045b68181585d2833e84879b9709143e1f593f00000018284089250827f30644e72e131a029b85045b68181585d2833e84879b9709143e1f593f0000001039250826101208501525050505050565b8151845260208201516020850152825160408501526020830151606085015260408160808660065afa80612ae457612ae36105bb565b5b5050505050565b8151845260208201516020850152823560408501526020830135606085015260408160808660065afa80612b2257612b216105bb565b5b5050505050565b815184526020820151602085015282604085015260408160608660075afa80612b5557612b546105bb565b5b5050505050565b813584526020820135602085015282604085015260408160608660075afa80612b8857612b876105bb565b5b5050505050565b815184526020820151602085015282604085015260408460608660075afa815160408601526020820151606086015260408260808760065afa8116905080612bda57612bd96105bb565b5b5050505050565b604051823585526020830135602086015283604086015260408560608760075afa825160408701526020830151606087015260408360808860065afa8116905080612c2f57612c2e6105bb565b5b505050505050565b7f30644e72e131a029b85045b68181585d2833e84879b9709143e1f593f0000001838335097f30644e72e131a029b85045b68181585d2833e84879b9709143e1f593f000000181835108825250505050565b5f60208452602080850152602060408501528160608501528260808501527f30644e72e131a029b85045b68181585d2833e84879b9709143e1f593f000000160a085015260208460c08660055afa84519150509392505050565b50505050505050949350505050565b60606040518060400160405280600681526020017f76312e322e300000000000000000000000000000000000000000000000000000815250905090565b5f7fffffffff0000000000000000000000000000000000000000000000000000000082169050919050565b612d6381612d2f565b82525050565b5f602082019050612d7c5f830184612d5a565b92915050565b5f819050919050565b612d9481612d82565b82525050565b5f602082019050612dad5f830184612d8b565b92915050565b5f80fd5b5f80fd5b612dc481612d82565b8114612dce575f80fd5b50565b5f81359050612ddf81612dbb565b92915050565b5f80fd5b5f80fd5b5f80fd5b5f8083601f840112612e0657612e05612de5565b5b8235905067ffffffffffffffff811115612e2357612e22612de9565b5b602083019150836001820283011115612e3f57612e3e612ded565b5b9250929050565b5f805f805f60608688031215612e5f57612e5e612db3565b5b5f612e6c88828901612dd1565b955050602086013567ffffffffffffffff811115612e8d57612e8c612db7565b5b612e9988828901612df1565b9450945050604086013567ffffffffffffffff811115612ebc57612ebb612db7565b5b612ec888828901612df1565b92509250509295509295909350565b5f8060208385031215612eed57612eec612db3565b5b5f83013567ffffffffffffffff811115612f0a57612f09612db7565b5b612f1685828601612df1565b92509250509250929050565b5f8083601f840112612f3757612f36612de5565b5b8235905067ffffffffffffffff811115612f5457612f53612de9565b5b602083019150836020820283011115612f7057612f6f612ded565b5b9250929050565b5f805f8060408587031215612f8f57612f8e612db3565b5b5f85013567ffffffffffffffff811115612fac57612fab612db7565b5b612fb887828801612df1565b9450945050602085013567ffffffffffffffff811115612fdb57612fda612db7565b5b612fe787828801612f22565b925092505092959194509250565b5f8115159050919050565b61300981612ff5565b82525050565b5f6020820190506130225f830184613000565b92915050565b5f81519050919050565b5f82825260208201905092915050565b8281835e5f83830152505050565b5f601f19601f8301169050919050565b5f61306a82613028565b6130748185613032565b9350613084818560208601613042565b61308d81613050565b840191505092915050565b5f6020820190508181035f8301526130b08184613060565b905092915050565b5f80fd5b5f80fd5b5f80858511156130d3576130d26130b8565b5b838611156130e4576130e36130bc565b5b6001850283019150848603905094509492505050565b5f82905092915050565b5f82821b905092915050565b5f61311b83836130fa565b826131268135612d2f565b92506004821015613166576131617fffffffff0000000000000000000000000000000000000000000000000000000083600403600802613104565b831692505b505092915050565b5f6040820190506131815f830185612d5a565b61318e6020830184612d5a565b9392505050565b7f4e487b71000000000000000000000000000000000000000000000000000000005f52604160045260245ffd5b7f4e487b71000000000000000000000000000000000000000000000000000000005f52603260045260245ffd5b5f82825260208201905092915050565b828183375f83830152505050565b5f61321883856131ef565b93506132258385846131ff565b61322e83613050565b840190509392505050565b5f81519050919050565b5f82825260208201905092915050565b5f819050602082019050919050565b5f819050919050565b61327481613262565b82525050565b5f613285838361326b565b60208301905092915050565b5f602082019050919050565b5f6132a782613239565b6132b18185613243565b93506132bc83613253565b805f5b838110156132ec5781516132d3888261327a565b97506132de83613291565b9250506001810190506132bf565b5085935050505092915050565b5f6040820190508181035f83015261331281858761320d565b90508181036020830152613326818461329d565b9050949350505050565b61333981612ff5565b8114613343575f80fd5b50565b5f8151905061335481613330565b92915050565b5f6020828403121561336f5761336e612db3565b5b5f61337c84828501613346565b91505092915050565b5f81905092915050565b5f61339a8385613385565b93506133a78385846131ff565b82840190509392505050565b5f6133bf82848661338f565b91508190509392505050565b5f815190506133d981612dbb565b92915050565b5f602082840312156133f4576133f3612db3565b5b5f613401848285016133cb565b9150509291505056fea2646970667358221220480f491eefd587636b15fd695a735a2b590fc64fea5ba78a1baf1d8b75050cc564736f6c634300081a0033",
			"opcodes": "PUSH1 0x80 PUSH1 0x40 MSTORE CALLVALUE DUP1 ISZERO PUSH1 0xE JUMPI PUSH0 DUP1 REVERT JUMPDEST POP PUSH2 0x3440 DUP1 PUSH2 0x1C PUSH0 CODECOPY PUSH0 RETURN INVALID PUSH1 0x80 PUSH1 0x40 MSTORE CALLVALUE DUP1 ISZERO PUSH2 0xF JUMPI PUSH0 DUP1 REVERT JUMPDEST POP PUSH1 0x4 CALLDATASIZE LT PUSH2 0x60 JUMPI PUSH0 CALLDATALOAD PUSH1 0xE0 SHR DUP1 PUSH4 0x7FCA93C EQ PUSH2 0x64 JUMPI DUP1 PUSH4 0x2A510436 EQ PUSH2 0x82 JUMPI DUP1 PUSH4 0x41493C60 EQ PUSH2 0xA0 JUMPI DUP1 PUSH4 0x6B61D8E7 EQ PUSH2 0xBC JUMPI DUP1 PUSH4 0x7E4F7A8A EQ PUSH2 0xEC JUMPI DUP1 PUSH4 0xFFA1AD74 EQ PUSH2 0x11C JUMPI JUMPDEST PUSH0 DUP1 REVERT JUMPDEST PUSH2 0x6C PUSH2 0x13A JUMP JUMPDEST PUSH1 0x40 MLOAD PUSH2 0x79 SWAP2 SWAP1 PUSH2 0x2D69 JUMP JUMPDEST PUSH1 0x40 MLOAD DUP1 SWAP2 SUB SWAP1 RETURN JUMPDEST PUSH2 0x8A PUSH2 0x148 JUMP JUMPDEST PUSH1 0x40 MLOAD PUSH2 0x97 SWAP2 SWAP1 PUSH2 0x2D9A JUMP JUMPDEST PUSH1 0x40 MLOAD DUP1 SWAP2 SUB SWAP1 RETURN JUMPDEST PUSH2 0xBA PUSH1 0x4 DUP1 CALLDATASIZE SUB DUP2 ADD SWAP1 PUSH2 0xB5 SWAP2 SWAP1 PUSH2 0x2E46 JUMP JUMPDEST PUSH2 0x171 JUMP JUMPDEST STOP JUMPDEST PUSH2 0xD6 PUSH1 0x4 DUP1 CALLDATASIZE SUB DUP2 ADD SWAP1 PUSH2 0xD1 SWAP2 SWAP1 PUSH2 0x2ED7 JUMP JUMPDEST PUSH2 0x393 JUMP JUMPDEST PUSH1 0x40 MLOAD PUSH2 0xE3 SWAP2 SWAP1 PUSH2 0x2D9A JUMP JUMPDEST PUSH1 0x40 MLOAD DUP1 SWAP2 SUB SWAP1 RETURN JUMPDEST PUSH2 0x106 PUSH1 0x4 DUP1 CALLDATASIZE SUB DUP2 ADD SWAP1 PUSH2 0x101 SWAP2 SWAP1 PUSH2 0x2F77 JUMP JUMPDEST PUSH2 0x410 JUMP JUMPDEST PUSH1 0x40 MLOAD PUSH2 0x113 SWAP2 SWAP1 PUSH2 0x300F JUMP JUMPDEST PUSH1 0x40 MLOAD DUP1 SWAP2 SUB SWAP1 RETURN JUMPDEST PUSH2 0x124 PUSH2 0x2CF2 JUMP JUMPDEST PUSH1 0x40 MLOAD PUSH2 0x131 SWAP2 SWAP1 PUSH2 0x3098 JUMP JUMPDEST PUSH1 0x40 MLOAD DUP1 SWAP2 SUB SWAP1 RETURN JUMPDEST PUSH0 PUSH2 0x143 PUSH2 0x148 JUMP JUMPDEST SWAP1 POP SWAP1 JUMP JUMPDEST PUSH0 PUSH32 0xC865C1B60C05BAA44075F37D6D88F2E18C64EFFB9113740B47CDF12B711B8AA4 PUSH0 SHL SWAP1 POP SWAP1 JUMP JUMPDEST PUSH0 DUP3 DUP3 PUSH0 SWAP1 PUSH1 0x4 SWAP3 PUSH2 0x185 SWAP4 SWAP3 SWAP2 SWAP1 PUSH2 0x30C0 JUMP JUMPDEST SWAP1 PUSH2 0x190 SWAP2 SWAP1 PUSH2 0x3110 JUMP JUMPDEST SWAP1 POP PUSH0 PUSH2 0x19B PUSH2 0x148 JUMP JUMPDEST SWAP1 POP DUP1 PUSH28 0xFFFFFFFFFFFFFFFFFFFFFFFFFFFFFFFFFFFFFFFFFFFFFFFFFFFFFFFF NOT AND DUP3 PUSH28 0xFFFFFFFFFFFFFFFFFFFFFFFFFFFFFFFFFFFFFFFFFFFFFFFFFFFFFFFF NOT AND EQ PUSH2 0x221 JUMPI DUP2 DUP2 PUSH1 0x40 MLOAD PUSH32 0x988066A100000000000000000000000000000000000000000000000000000000 DUP2 MSTORE PUSH1 0x4 ADD PUSH2 0x218 SWAP3 SWAP2 SWAP1 PUSH2 0x316E JUMP JUMPDEST PUSH1 0x40 MLOAD DUP1 SWAP2 SUB SWAP1 REVERT JUMPDEST PUSH0 PUSH2 0x22C DUP8 DUP8 PUSH2 0x393 JUMP JUMPDEST SWAP1 POP PUSH0 PUSH1 0x2 PUSH8 0xFFFFFFFFFFFFFFFF DUP2 GT ISZERO PUSH2 0x24A JUMPI PUSH2 0x249 PUSH2 0x3195 JUMP JUMPDEST JUMPDEST PUSH1 0x40 MLOAD SWAP1 DUP1 DUP3 MSTORE DUP1 PUSH1 0x20 MUL PUSH1 0x20 ADD DUP3 ADD PUSH1 0x40 MSTORE DUP1 ISZERO PUSH2 0x278 JUMPI DUP2 PUSH1 0x20 ADD PUSH1 0x20 DUP3 MUL DUP1 CALLDATASIZE DUP4 CALLDATACOPY DUP1 DUP3 ADD SWAP2 POP POP SWAP1 POP JUMPDEST POP SWAP1 POP DUP9 PUSH0 SHR DUP2 PUSH0 DUP2 MLOAD DUP2 LT PUSH2 0x291 JUMPI PUSH2 0x290 PUSH2 0x31C2 JUMP JUMPDEST JUMPDEST PUSH1 0x20 MUL PUSH1 0x20 ADD ADD DUP2 DUP2 MSTORE POP POP DUP2 PUSH0 SHR DUP2 PUSH1 0x1 DUP2 MLOAD DUP2 LT PUSH2 0x2B4 JUMPI PUSH2 0x2B3 PUSH2 0x31C2 JUMP JUMPDEST JUMPDEST PUSH1 0x20 MUL PUSH1 0x20 ADD ADD DUP2 DUP2 MSTORE POP POP PUSH0 ADDRESS PUSH20 0xFFFFFFFFFFFFFFFFFFFFFFFFFFFFFFFFFFFFFFFF AND PUSH4 0x7E4F7A8A DUP9 DUP9 PUSH1 0x4 SWAP1 DUP1 SWAP3 PUSH2 0x2F0 SWAP4 SWAP3 SWAP2 SWAP1 PUSH2 0x30C0 JUMP JUMPDEST DUP6 PUSH1 0x40 MLOAD DUP5 PUSH4 0xFFFFFFFF AND PUSH1 0xE0 SHL DUP2 MSTORE PUSH1 0x4 ADD PUSH2 0x30F SWAP4 SWAP3 SWAP2 SWAP1 PUSH2 0x32F9 JUMP JUMPDEST PUSH1 0x20 PUSH1 0x40 MLOAD DUP1 DUP4 SUB DUP2 DUP7 GAS STATICCALL ISZERO DUP1 ISZERO PUSH2 0x32A JUMPI RETURNDATASIZE PUSH0 DUP1 RETURNDATACOPY RETURNDATASIZE PUSH0 REVERT JUMPDEST POP POP POP POP PUSH1 0x40 MLOAD RETURNDATASIZE PUSH1 0x1F NOT PUSH1 0x1F DUP3 ADD AND DUP3 ADD DUP1 PUSH1 0x40 MSTORE POP DUP2 ADD SWAP1 PUSH2 0x34E SWAP2 SWAP1 PUSH2 0x335A JUMP JUMPDEST SWAP1 POP DUP1 PUSH2 0x387 JUMPI PUSH1 0x40 MLOAD PUSH32 0x9BDE33900000000000000000000000000000000000000000000000000000000 DUP2 MSTORE PUSH1 0x4 ADD PUSH1 0x40 MLOAD DUP1 SWAP2 SUB SWAP1 REVERT JUMPDEST POP POP POP POP POP POP POP POP POP POP JUMP JUMPDEST PUSH0 PUSH32 0x1FFFFFFFFFFFFFFFFFFFFFFFFFFFFFFFFFFFFFFFFFFFFFFFFFFFFFFFFFFFFFFF PUSH0 SHL PUSH1 0x2 DUP5 DUP5 PUSH1 0x40 MLOAD PUSH2 0x3C9 SWAP3 SWAP2 SWAP1 PUSH2 0x33B3 JUMP JUMPDEST PUSH1 0x20 PUSH1 0x40 MLOAD DUP1 DUP4 SUB DUP2 DUP6 GAS STATICCALL ISZERO DUP1 ISZERO PUSH2 0x3E4 JUMPI RETURNDATASIZE PUSH0 DUP1 RETURNDATACOPY RETURNDATASIZE PUSH0 REVERT JUMPDEST POP POP POP PUSH1 0x40 MLOAD RETURNDATASIZE PUSH1 0x1F NOT PUSH1 0x1F DUP3 ADD AND DUP3 ADD DUP1 PUSH1 0x40 MSTORE POP DUP2 ADD SWAP1 PUSH2 0x407 SWAP2 SWAP1 PUSH2 0x33DF JUMP JUMPDEST AND SWAP1 POP SWAP3 SWAP2 POP POP JUMP JUMPDEST PUSH0 PUSH1 0x40 MLOAD PUSH2 0x240 DUP2 ADD PUSH2 0x422 DUP5 PUSH2 0x854 JUMP JUMPDEST PUSH2 0x42C DUP6 DUP6 PUSH2 0x868 JUMP JUMPDEST PUSH2 0x435 DUP7 PUSH2 0x8BA JUMP JUMPDEST PUSH2 0x43E DUP8 PUSH2 0x8D7 JUMP JUMPDEST PUSH0 PUSH2 0x44A DUP7 DUP7 DUP11 PUSH2 0xA85 JUMP JUMPDEST SWAP1 POP PUSH2 0x455 DUP2 PUSH2 0xDCB JUMP JUMPDEST SWAP1 POP PUSH2 0x461 DUP2 DUP10 PUSH2 0xE32 JUMP JUMPDEST SWAP1 POP PUSH2 0x46D DUP2 DUP10 PUSH2 0xEC7 JUMP JUMPDEST PUSH1 0x60 DUP4 ADD MLOAD PUSH32 0x30644E72E131A029B85045B68181585D2833E84879B9709143E1F593F0000001 PUSH1 0x1 PUSH32 0x30644E72E131A029B85045B68181585D2833E84879B9709143E1F593F0000001 SUB PUSH2 0x4C6 DUP6 PUSH4 0x2000000 DUP6 PUSH2 0x2C89 JUMP JUMPDEST ADDMOD DUP1 PUSH2 0x1C0 DUP7 ADD MSTORE PUSH2 0x4D9 DUP5 DUP9 DUP11 PUSH2 0xF35 JUMP JUMPDEST PUSH2 0x4E4 DUP6 DUP10 DUP14 PUSH2 0x1296 JUMP JUMPDEST PUSH32 0x30644E72E131A029B85045B68181585D2833E84879B9709143E1F593F0000001 DUP3 DUP3 ADDMOD SWAP2 POP DUP2 PUSH2 0x1A0 DUP9 ADD MSTORE PUSH2 0x519 PUSH2 0x164C JUMP JUMPDEST PUSH2 0x522 DUP13 PUSH2 0x2820 JUMP JUMPDEST PUSH2 0x52B DUP13 PUSH2 0x2760 JUMP JUMPDEST PUSH2 0x534 DUP13 PUSH2 0x235B JUMP JUMPDEST PUSH2 0x53D DUP13 PUSH2 0x1E59 JUMP JUMPDEST PUSH2 0x546 DUP13 PUSH2 0x1BB0 JUMP JUMPDEST PUSH2 0x54F DUP13 PUSH2 0x17A0 JUMP JUMPDEST PUSH2 0x200 DUP8 ADD MLOAD SWAP8 POP PUSH2 0x2CE3 JUMP JUMPDEST PUSH1 0x40 MLOAD PUSH32 0x8C379A000000000000000000000000000000000000000000000000000000000 DUP2 MSTORE PUSH1 0x20 PUSH1 0x4 DUP3 ADD MSTORE PUSH1 0x1D PUSH1 0x24 DUP3 ADD MSTORE PUSH32 0x77726F6E67206E756D626572206F66207075626C696320696E70757473000000 PUSH1 0x44 DUP3 ADD MSTORE PUSH1 0x64 DUP2 REVERT JUMPDEST PUSH1 0x40 MLOAD PUSH32 0x8C379A000000000000000000000000000000000000000000000000000000000 DUP2 MSTORE PUSH1 0x20 PUSH1 0x4 DUP3 ADD MSTORE PUSH1 0x12 PUSH1 0x24 DUP3 ADD MSTORE PUSH32 0x6572726F72206563206F7065726174696F6E0000000000000000000000000000 PUSH1 0x44 DUP3 ADD MSTORE PUSH1 0x64 DUP2 REVERT JUMPDEST PUSH1 0x40 MLOAD PUSH32 0x8C379A000000000000000000000000000000000000000000000000000000000 DUP2 MSTORE PUSH1 0x20 PUSH1 0x4 DUP3 ADD MSTORE PUSH1 0x18 PUSH1 0x24 DUP3 ADD MSTORE PUSH32 0x696E707574732061726520626967676572207468616E20720000000000000000 PUSH1 0x44 DUP3 ADD MSTORE PUSH1 0x64 DUP2 REVERT JUMPDEST PUSH1 0x40 MLOAD PUSH32 0x8C379A000000000000000000000000000000000000000000000000000000000 DUP2 MSTORE PUSH1 0x20 PUSH1 0x4 DUP3 ADD MSTORE PUSH1 0x10 PUSH1 0x24 DUP3 ADD MSTORE PUSH32 0x77726F6E672070726F6F662073697A6500000000000000000000000000000000 PUSH1 0x44 DUP3 ADD MSTORE PUSH1 0x64 DUP2 REVERT JUMPDEST PUSH1 0x40 MLOAD PUSH32 0x8C379A000000000000000000000000000000000000000000000000000000000 DUP2 MSTORE PUSH1 0x20 PUSH1 0x4 DUP3 ADD MSTORE PUSH1 0x16 PUSH1 0x24 DUP3 ADD MSTORE PUSH32 0x6F70656E696E677320626967676572207468616E207200000000000000000000 PUSH1 0x44 DUP3 ADD MSTORE PUSH1 0x64 DUP2 REVERT JUMPDEST PUSH1 0x40 MLOAD PUSH32 0x8C379A000000000000000000000000000000000000000000000000000000000 DUP2 MSTORE PUSH1 0x20 PUSH1 0x4 DUP3 ADD MSTORE PUSH1 0xD PUSH1 0x24 DUP3 ADD MSTORE PUSH32 0x6572726F722070616972696E6700000000000000000000000000000000000000 PUSH1 0x44 DUP3 ADD MSTORE PUSH1 0x64 DUP2 REVERT JUMPDEST PUSH1 0x40 MLOAD PUSH32 0x8C379A000000000000000000000000000000000000000000000000000000000 DUP2 MSTORE PUSH1 0x20 PUSH1 0x4 DUP3 ADD MSTORE PUSH1 0xC PUSH1 0x24 DUP3 ADD MSTORE PUSH32 0x6572726F72207665726966790000000000000000000000000000000000000000 PUSH1 0x44 DUP3 ADD MSTORE PUSH1 0x64 DUP2 REVERT JUMPDEST PUSH1 0x40 MLOAD PUSH32 0x8C379A000000000000000000000000000000000000000000000000000000000 DUP2 MSTORE PUSH1 0x20 PUSH1 0x4 DUP3 ADD MSTORE PUSH1 0x14 PUSH1 0x24 DUP3 ADD MSTORE PUSH32 0x6572726F722072616E646F6D2067656E206B7A67000000000000000000000000 PUSH1 0x44 DUP3 ADD MSTORE PUSH1 0x64 DUP2 REVERT JUMPDEST PUSH1 0x2 DUP2 EQ PUSH2 0x865 JUMPI PUSH2 0x864 PUSH2 0x55C JUMP JUMPDEST JUMPDEST POP JUMP JUMPDEST PUSH0 JUMPDEST DUP2 DUP2 LT ISZERO PUSH2 0x8B5 JUMPI PUSH32 0x30644E72E131A029B85045B68181585D2833E84879B9709143E1F593F0000000 DUP4 CALLDATALOAD GT ISZERO PUSH2 0x8A4 JUMPI PUSH2 0x8A3 PUSH2 0x61A JUMP JUMPDEST JUMPDEST PUSH1 0x20 DUP4 ADD SWAP3 POP PUSH1 0x1 DUP2 ADD SWAP1 POP PUSH2 0x86A JUMP JUMPDEST POP POP POP JUMP JUMPDEST PUSH1 0x60 PUSH1 0x1 MUL PUSH2 0x300 ADD DUP1 DUP3 EQ PUSH2 0x8D3 JUMPI PUSH2 0x8D2 PUSH2 0x679 JUMP JUMPDEST JUMPDEST POP POP JUMP JUMPDEST PUSH2 0x180 DUP2 ADD PUSH32 0x30644E72E131A029B85045B68181585D2833E84879B9709143E1F593F0000000 DUP2 CALLDATALOAD GT ISZERO PUSH2 0x90E JUMPI PUSH2 0x90D PUSH2 0x6D8 JUMP JUMPDEST JUMPDEST PUSH2 0x1A0 DUP3 ADD SWAP1 POP PUSH32 0x30644E72E131A029B85045B68181585D2833E84879B9709143E1F593F0000000 DUP2 CALLDATALOAD GT ISZERO PUSH2 0x947 JUMPI PUSH2 0x946 PUSH2 0x6D8 JUMP JUMPDEST JUMPDEST PUSH2 0x1C0 DUP3 ADD SWAP1 POP PUSH32 0x30644E72E131A029B85045B68181585D2833E84879B9709143E1F593F0000000 DUP2 CALLDATALOAD GT ISZERO PUSH2 0x980 JUMPI PUSH2 0x97F PUSH2 0x6D8 JUMP JUMPDEST JUMPDEST PUSH2 0x1E0 DUP3 ADD SWAP1 POP PUSH32 0x30644E72E131A029B85045B68181585D2833E84879B9709143E1F593F0000000 DUP2 CALLDATALOAD GT ISZERO PUSH2 0x9B9 JUMPI PUSH2 0x9B8 PUSH2 0x6D8 JUMP JUMPDEST JUMPDEST PUSH2 0x200 DUP3 ADD SWAP1 POP PUSH32 0x30644E72E131A029B85045B68181585D2833E84879B9709143E1F593F0000000 DUP2 CALLDATALOAD GT ISZERO PUSH2 0x9F2 JUMPI PUSH2 0x9F1 PUSH2 0x6D8 JUMP JUMPDEST JUMPDEST PUSH2 0x260 DUP3 ADD SWAP1 POP PUSH32 0x30644E72E131A029B85045B68181585D2833E84879B9709143E1F593F0000000 DUP2 CALLDATALOAD GT ISZERO PUSH2 0xA2B JUMPI PUSH2 0xA2A PUSH2 0x6D8 JUMP JUMPDEST JUMPDEST PUSH2 0x300 DUP3 ADD SWAP1 POP PUSH0 JUMPDEST PUSH1 0x1 DUP2 LT ISZERO PUSH2 0xA80 JUMPI PUSH32 0x30644E72E131A029B85045B68181585D2833E84879B9709143E1F593F0000000 DUP3 CALLDATALOAD GT ISZERO PUSH2 0xA6F JUMPI PUSH2 0xA6E PUSH2 0x6D8 JUMP JUMPDEST JUMPDEST PUSH1 0x20 DUP3 ADD SWAP2 POP PUSH1 0x1 DUP2 ADD SWAP1 POP PUSH2 0xA34 JUMP JUMPDEST POP POP POP JUMP JUMPDEST PUSH0 PUSH1 0x40 MLOAD PUSH2 0x240 DUP2 ADD PUSH5 0x67616D6D61 DUP2 MSTORE PUSH32 0x2706EFCAF27FEE06C1B6CFF51ED3D6FA1A698AE589D9EDA334B68FB5B2AFFD30 PUSH1 0x20 DUP3 ADD MSTORE PUSH32 0x29B98211FCA4D76FF8F1CEF1ED55AE8F5482BF98A9B7ACFBC192D14C1B538CE1 PUSH1 0x40 DUP3 ADD MSTORE PUSH32 0x2A19DDEA94E1D5D2CC1F74D838C54C1CFB3E09829464520CE2F5C5C01F33B0A9 PUSH1 0x60 DUP3 ADD MSTORE PUSH32 0x160BF19AB232A0EB2DCFE41DA72A964C469DCF10A38276746B7516C75A24BE77 PUSH1 0x80 DUP3 ADD MSTORE PUSH31 0xD6DBD0066CC13B995B7B9D226FD63B4BEDA3032D9BC61BD04DB110BB47BE24 PUSH1 0xA0 DUP3 ADD MSTORE PUSH32 0x336ACC575090FD12F7CDD2A7FEA266A8D8773F272849AC70D3E6D538BA31A7C PUSH1 0xC0 DUP3 ADD MSTORE PUSH32 0x2BF3F4DC363FC802D3352C6931541A153DB647EBFB22DB363C91A488F5CF72F3 PUSH1 0xE0 DUP3 ADD MSTORE PUSH32 0x176F8DFEE5D5C0F5C2108136560594BE5401829C32010A1B858E6F730FC669FF PUSH2 0x100 DUP3 ADD MSTORE PUSH32 0x2B999CB720D2E11C81964EBAB91945D314BFEA28DFA3BE6288C0836B54286134 PUSH2 0x120 DUP3 ADD MSTORE PUSH32 0x11D6DA8D1642D007C5BAFBE0F35B2319F1784D2FDFE5F19BD267175F3A15195D PUSH2 0x140 DUP3 ADD MSTORE PUSH32 0x1237D31040A0B49B48A56F6819D41636A947C687636B77A4B70CA821A04377AA PUSH2 0x160 DUP3 ADD MSTORE PUSH32 0x1ACE2D4DD12779BE79FDB5074DBF0EA105341A38572878EB93899C2E6D51D158 PUSH2 0x180 DUP3 ADD MSTORE PUSH32 0x25D13C99E787F78227726F7360A5F45F219EAAD4885FA9247B3DF0E5DDA33151 PUSH2 0x1A0 DUP3 ADD MSTORE PUSH32 0x77101F2BC8341C28F7F7189738411C949CB29203CF7D9F97138F8F37DBBCF65 PUSH2 0x1C0 DUP3 ADD MSTORE PUSH32 0x16B60A19C138871BA7E38F6DF3E7D07DF7588BB021F0CDDB1FC651389EFE7E3A PUSH2 0x1E0 DUP3 ADD MSTORE PUSH32 0x22DA86A709AACE21E60B9B6C34935142BA75A838DFA3E7E198FC71EB39E18CED PUSH2 0x200 DUP3 ADD MSTORE PUSH32 0x194020F69D21BC903657A688F182302B7FB073CE4E0A2530BFDA1FFA58B792FA PUSH2 0x220 DUP3 ADD MSTORE PUSH32 0x132B4B05A659EB1C6164D8BF5093B1A6371A2A1B20694E5E6CB5A8C8BE9D83F9 PUSH2 0x240 DUP3 ADD MSTORE PUSH2 0x260 DUP2 ADD PUSH1 0x20 DUP7 MUL DUP1 DUP9 DUP4 CALLDATACOPY DUP1 DUP3 ADD SWAP2 POP PUSH1 0xC0 DUP1 DUP8 DUP5 CALLDATACOPY DUP1 DUP4 ADD SWAP3 POP DUP2 PUSH2 0x2C5 ADD PUSH1 0x40 PUSH1 0x1 MUL DUP2 ADD SWAP1 POP PUSH1 0x20 DUP6 DUP3 PUSH1 0x1B DUP9 ADD PUSH1 0x2 GAS STATICCALL DUP1 PUSH2 0xD91 JUMPI PUSH2 0xD90 PUSH2 0x796 JUMP JUMPDEST JUMPDEST DUP6 MLOAD SWAP8 POP PUSH32 0x30644E72E131A029B85045B68181585D2833E84879B9709143E1F593F0000001 DUP9 MOD PUSH1 0x40 DUP9 ADD MSTORE POP POP POP POP POP POP POP SWAP4 SWAP3 POP POP POP JUMP JUMPDEST PUSH0 PUSH1 0x40 MLOAD PUSH2 0x240 PUSH1 0x40 MLOAD ADD PUSH4 0x62657461 DUP2 MSTORE DUP4 PUSH1 0x20 DUP3 ADD MSTORE PUSH1 0x20 DUP2 PUSH1 0x24 PUSH1 0x1C DUP5 ADD PUSH1 0x2 GAS STATICCALL DUP1 PUSH2 0xDFE JUMPI PUSH2 0xDFD PUSH2 0x796 JUMP JUMPDEST JUMPDEST DUP2 MLOAD SWAP4 POP PUSH32 0x30644E72E131A029B85045B68181585D2833E84879B9709143E1F593F0000001 DUP5 MOD PUSH1 0x20 DUP5 ADD MSTORE POP POP POP SWAP2 SWAP1 POP JUMP JUMPDEST PUSH0 PUSH1 0x40 MLOAD PUSH2 0x240 PUSH1 0x40 MLOAD ADD PUSH1 0x65 PUSH5 0x616C706861 DUP3 MSTORE PUSH1 0x20 DUP3 ADD DUP7 DUP2 MSTORE PUSH1 0x20 DUP2 ADD SWAP1 POP PUSH2 0x320 DUP7 ADD PUSH1 0x1 PUSH1 0x40 MUL DUP1 DUP3 DUP5 CALLDATACOPY DUP1 DUP4 ADD SWAP3 POP DUP1 DUP5 ADD SWAP4 POP PUSH1 0x40 PUSH2 0x220 DUP10 ADD DUP5 CALLDATACOPY PUSH1 0x20 DUP6 DUP6 PUSH1 0x1B DUP9 ADD PUSH1 0x2 GAS STATICCALL DUP1 PUSH2 0xE8F JUMPI PUSH2 0xE8E PUSH2 0x796 JUMP JUMPDEST JUMPDEST DUP6 MLOAD SWAP8 POP PUSH32 0x30644E72E131A029B85045B68181585D2833E84879B9709143E1F593F0000001 DUP9 MOD PUSH0 DUP9 ADD MSTORE POP POP POP POP POP POP POP SWAP3 SWAP2 POP POP JUMP JUMPDEST PUSH1 0x40 MLOAD PUSH2 0x240 PUSH1 0x40 MLOAD ADD PUSH4 0x7A657461 DUP2 MSTORE DUP4 PUSH1 0x20 DUP3 ADD MSTORE PUSH1 0xC0 DUP1 DUP5 ADD PUSH1 0x40 DUP4 ADD CALLDATACOPY PUSH1 0x20 DUP2 PUSH1 0xE4 PUSH1 0x1C DUP5 ADD PUSH1 0x2 GAS STATICCALL DUP1 PUSH2 0xF03 JUMPI PUSH2 0xF02 PUSH2 0x796 JUMP JUMPDEST JUMPDEST DUP2 MLOAD PUSH32 0x30644E72E131A029B85045B68181585D2833E84879B9709143E1F593F0000001 DUP2 MOD PUSH1 0x60 DUP6 ADD MSTORE POP POP POP POP POP POP JUMP JUMPDEST PUSH0 PUSH1 0x40 MLOAD PUSH1 0x60 DUP2 ADD MLOAD PUSH2 0x1C0 DUP3 ADD MLOAD DUP7 PUSH2 0xF51 DUP2 DUP9 DUP5 DUP7 PUSH2 0xFCE JUMP JUMPDEST PUSH0 DUP1 JUMPDEST DUP9 DUP2 LT ISZERO PUSH2 0xFC1 JUMPI PUSH32 0x30644E72E131A029B85045B68181585D2833E84879B9709143E1F593F0000001 DUP9 CALLDATALOAD DUP5 MLOAD MULMOD SWAP2 POP PUSH32 0x30644E72E131A029B85045B68181585D2833E84879B9709143E1F593F0000001 DUP3 DUP9 ADDMOD SWAP7 POP PUSH1 0x20 DUP4 ADD SWAP3 POP PUSH1 0x20 DUP9 ADD SWAP8 POP PUSH1 0x1 DUP2 ADD SWAP1 POP PUSH2 0xF54 JUMP JUMPDEST POP POP POP POP POP POP SWAP4 SWAP3 POP POP POP JUMP JUMPDEST PUSH32 0x30644E72E131A029B85045B68181585D2833E84879B9709143E1F593F0000001 PUSH32 0x30644E5AAF0A66B91F8030DA595E7D1C6787B9B45FC54C546729ACF1FF053609 DUP4 MULMOD PUSH1 0x1 DUP6 PUSH0 JUMPDEST DUP7 DUP2 LT ISZERO PUSH2 0x10BE JUMPI PUSH32 0x30644E72E131A029B85045B68181585D2833E84879B9709143E1F593F0000001 DUP4 PUSH32 0x30644E72E131A029B85045B68181585D2833E84879B9709143E1F593F0000001 SUB DUP7 ADDMOD DUP3 MSTORE PUSH32 0x30644E72E131A029B85045B68181585D2833E84879B9709143E1F593F0000001 PUSH32 0x2A734EBB326341EFA19B0361D9130CD47B26B7488DC6D26EECCD4F3EB878331A DUP5 MULMOD SWAP3 POP PUSH1 0x20 DUP3 ADD SWAP2 POP PUSH1 0x1 DUP2 ADD SWAP1 POP PUSH2 0x1017 JUMP JUMPDEST POP PUSH2 0x10CA DUP2 DUP8 DUP10 PUSH2 0x1186 JUMP JUMPDEST DUP7 SWAP1 POP PUSH1 0x1 SWAP2 POP PUSH0 JUMPDEST DUP7 DUP2 LT ISZERO PUSH2 0x117C JUMPI PUSH32 0x30644E72E131A029B85045B68181585D2833E84879B9709143E1F593F0000001 DUP4 PUSH32 0x30644E72E131A029B85045B68181585D2833E84879B9709143E1F593F0000001 DUP7 DUP6 MLOAD MULMOD MULMOD DUP3 MSTORE PUSH1 0x20 DUP3 ADD SWAP2 POP PUSH32 0x30644E72E131A029B85045B68181585D2833E84879B9709143E1F593F0000001 PUSH32 0x2A734EBB326341EFA19B0361D9130CD47B26B7488DC6D26EECCD4F3EB878331A DUP5 MULMOD SWAP3 POP PUSH1 0x1 DUP2 ADD SWAP1 POP PUSH2 0x10D3 JUMP JUMPDEST POP POP POP POP POP POP POP POP JUMP JUMPDEST PUSH1 0x1 DUP4 MSTORE PUSH0 DUP1 JUMPDEST DUP4 DUP2 LT ISZERO PUSH2 0x11DB JUMPI DUP2 DUP6 ADD MLOAD DUP3 DUP5 ADD MLOAD PUSH32 0x30644E72E131A029B85045B68181585D2833E84879B9709143E1F593F0000001 DUP2 DUP4 MULMOD SWAP1 POP PUSH1 0x20 DUP5 ADD SWAP4 POP DUP1 DUP5 DUP9 ADD MSTORE POP POP PUSH1 0x1 DUP2 ADD SWAP1 POP PUSH2 0x118D JUMP JUMPDEST POP PUSH1 0x20 DUP2 SUB DUP3 ADD SWAP2 POP DUP1 DUP5 ADD SWAP4 POP PUSH2 0x121B PUSH1 0x20 DUP6 ADD PUSH1 0x2 PUSH32 0x30644E72E131A029B85045B68181585D2833E84879B9709143E1F593F0000001 SUB DUP7 MLOAD PUSH2 0x2C89 JUMP JUMPDEST PUSH0 JUMPDEST DUP5 DUP2 LT ISZERO PUSH2 0x128E JUMPI PUSH1 0x20 DUP7 SUB SWAP6 POP DUP4 MLOAD PUSH32 0x30644E72E131A029B85045B68181585D2833E84879B9709143E1F593F0000001 DUP8 MLOAD DUP5 MULMOD DUP1 DUP7 MSTORE PUSH32 0x30644E72E131A029B85045B68181585D2833E84879B9709143E1F593F0000001 DUP3 DUP6 MULMOD SWAP4 POP PUSH1 0x20 DUP7 SUB SWAP6 POP POP POP PUSH1 0x1 DUP2 ADD SWAP1 POP PUSH2 0x121D JUMP JUMPDEST POP POP POP POP POP POP JUMP JUMPDEST PUSH0 PUSH1 0x40 MLOAD PUSH1 0x60 DUP2 ADD MLOAD PUSH2 0x1C0 DUP3 ADD MLOAD PUSH2 0x320 DUP6 ADD PUSH0 DUP1 PUSH2 0x12BC DUP11 PUSH1 0x20 DUP6 ADD CALLDATALOAD DUP6 CALLDATALOAD PUSH2 0x144D JUMP JUMPDEST SWAP2 POP PUSH2 0x12D0 DUP11 PUSH4 0x10BDEB0 DUP12 ADD DUP7 DUP9 PUSH2 0x130E JUMP JUMPDEST SWAP1 POP PUSH32 0x30644E72E131A029B85045B68181585D2833E84879B9709143E1F593F0000001 DUP1 DUP3 DUP5 MULMOD DUP9 ADDMOD SWAP7 POP PUSH1 0x40 DUP4 ADD SWAP3 POP POP POP POP POP POP POP SWAP4 SWAP3 POP POP POP JUMP JUMPDEST PUSH0 PUSH2 0x133A DUP6 DUP6 PUSH32 0x2A734EBB326341EFA19B0361D9130CD47B26B7488DC6D26EECCD4F3EB878331A PUSH2 0x2C89 JUMP JUMPDEST PUSH32 0x30644E72E131A029B85045B68181585D2833E84879B9709143E1F593F0000001 DUP2 PUSH32 0x30644E72E131A029B85045B68181585D2833E84879B9709143E1F593F0000001 SUB DUP5 ADDMOD SWAP5 POP PUSH32 0x30644E72E131A029B85045B68181585D2833E84879B9709143E1F593F0000001 PUSH32 0x30644E5AAF0A66B91F8030DA595E7D1C6787B9B45FC54C546729ACF1FF053609 DUP3 MULMOD SWAP1 POP PUSH2 0x13F6 DUP7 PUSH1 0x2 PUSH32 0x30644E72E131A029B85045B68181585D2833E84879B9709143E1F593F0000001 SUB DUP8 PUSH2 0x2C89 JUMP JUMPDEST SWAP5 POP PUSH32 0x30644E72E131A029B85045B68181585D2833E84879B9709143E1F593F0000001 DUP6 DUP3 MULMOD SWAP1 POP PUSH32 0x30644E72E131A029B85045B68181585D2833E84879B9709143E1F593F0000001 DUP5 DUP3 MULMOD SWAP2 POP POP SWAP5 SWAP4 POP POP POP POP JUMP JUMPDEST PUSH0 DUP1 DUP5 MSTORE PUSH0 PUSH1 0x20 DUP6 ADD MSTORE DUP2 PUSH1 0x40 DUP6 ADD MSTORE DUP3 PUSH1 0x60 DUP6 ADD MSTORE PUSH0 PUSH1 0x80 DUP6 ADD MSTORE8 PUSH1 0x30 PUSH1 0x81 DUP6 ADD MSTORE8 PUSH0 PUSH1 0x82 DUP6 ADD MSTORE8 PUSH1 0x42 PUSH1 0x83 DUP6 ADD MSTORE8 PUSH1 0x53 PUSH1 0x84 DUP6 ADD MSTORE8 PUSH1 0x42 PUSH1 0x85 DUP6 ADD MSTORE8 PUSH1 0x32 PUSH1 0x86 DUP6 ADD MSTORE8 PUSH1 0x32 PUSH1 0x87 DUP6 ADD MSTORE8 PUSH1 0x2D PUSH1 0x88 DUP6 ADD MSTORE8 PUSH1 0x50 PUSH1 0x89 DUP6 ADD MSTORE8 PUSH1 0x6C PUSH1 0x8A DUP6 ADD MSTORE8 PUSH1 0x6F PUSH1 0x8B DUP6 ADD MSTORE8 PUSH1 0x6E PUSH1 0x8C DUP6 ADD MSTORE8 PUSH1 0x6B PUSH1 0x8D DUP6 ADD MSTORE8 PUSH1 0xB PUSH1 0x8E DUP6 ADD MSTORE8 PUSH1 0x20 DUP5 PUSH1 0x8F DUP7 PUSH1 0x2 GAS STATICCALL DUP1 PUSH2 0x14E2 JUMPI PUSH2 0x14E1 PUSH2 0x796 JUMP JUMPDEST JUMPDEST DUP5 MLOAD PUSH1 0x1 PUSH1 0x20 DUP8 ADD MSTORE8 PUSH1 0x42 PUSH1 0x21 DUP8 ADD MSTORE8 PUSH1 0x53 PUSH1 0x22 DUP8 ADD MSTORE8 PUSH1 0x42 PUSH1 0x23 DUP8 ADD MSTORE8 PUSH1 0x32 PUSH1 0x24 DUP8 ADD MSTORE8 PUSH1 0x32 PUSH1 0x25 DUP8 ADD MSTORE8 PUSH1 0x2D PUSH1 0x26 DUP8 ADD MSTORE8 PUSH1 0x50 PUSH1 0x27 DUP8 ADD MSTORE8 PUSH1 0x6C PUSH1 0x28 DUP8 ADD MSTORE8 PUSH1 0x6F PUSH1 0x29 DUP8 ADD MSTORE8 PUSH1 0x6E PUSH1 0x2A DUP8 ADD MSTORE8 PUSH1 0x6B PUSH1 0x2B DUP8 ADD MSTORE8 PUSH1 0xB PUSH1 0x2C DUP8 ADD MSTORE8 PUSH1 0x20 DUP7 PUSH1 0x2D DUP9 PUSH1 0x2 GAS STATICCALL SWAP2 POP DUP2 PUSH2 0x1559 JUMPI PUSH2 0x1558 PUSH2 0x796 JUMP JUMPDEST JUMPDEST DUP1 DUP7 MLOAD XOR PUSH1 0x20 DUP8 ADD MSTORE PUSH1 0x2 PUSH1 0x40 DUP8 ADD MSTORE8 PUSH1 0x42 PUSH1 0x41 DUP8 ADD MSTORE8 PUSH1 0x53 PUSH1 0x42 DUP8 ADD MSTORE8 PUSH1 0x42 PUSH1 0x43 DUP8 ADD MSTORE8 PUSH1 0x32 PUSH1 0x44 DUP8 ADD MSTORE8 PUSH1 0x32 PUSH1 0x45 DUP8 ADD MSTORE8 PUSH1 0x2D PUSH1 0x46 DUP8 ADD MSTORE8 PUSH1 0x50 PUSH1 0x47 DUP8 ADD MSTORE8 PUSH1 0x6C PUSH1 0x48 DUP8 ADD MSTORE8 PUSH1 0x6F PUSH1 0x49 DUP8 ADD MSTORE8 PUSH1 0x6E PUSH1 0x4A DUP8 ADD MSTORE8 PUSH1 0x6B PUSH1 0x4B DUP8 ADD MSTORE8 PUSH1 0xB PUSH1 0x4C DUP8 ADD MSTORE8 PUSH1 0x20 DUP7 ADD PUSH1 0x20 DUP2 PUSH1 0x2D DUP4 PUSH1 0x2 GAS STATICCALL SWAP3 POP DUP3 PUSH2 0x15DB JUMPI PUSH2 0x15DA PUSH2 0x796 JUMP JUMPDEST JUMPDEST PUSH32 0x30644E72E131A029B85045B68181585D2833E84879B9709143E1F593F0000001 PUSH17 0x100000000000000000000000000000000 DUP9 MLOAD MULMOD SWAP4 POP PUSH1 0x20 DUP8 ADD MLOAD PUSH1 0x80 SHR PUSH32 0x30644E72E131A029B85045B68181585D2833E84879B9709143E1F593F0000001 DUP2 DUP7 ADDMOD SWAP5 POP POP POP POP POP SWAP4 SWAP3 POP POP POP JUMP JUMPDEST PUSH1 0x40 MLOAD PUSH2 0x240 PUSH1 0x40 MLOAD ADD PUSH2 0x1C0 DUP3 ADD MLOAD PUSH32 0x30644E72E131A029B85045B68181585D2833E84879B9709143E1F593F0000001 PUSH1 0x1 PUSH32 0x30644E72E131A029B85045B68181585D2833E84879B9709143E1F593F0000001 SUB PUSH1 0x60 DUP6 ADD MLOAD ADDMOD PUSH2 0x16D5 DUP4 PUSH1 0x2 PUSH32 0x30644E72E131A029B85045B68181585D2833E84879B9709143E1F593F0000001 SUB DUP4 PUSH2 0x2C89 JUMP JUMPDEST SWAP1 POP PUSH32 0x30644E72E131A029B85045B68181585D2833E84879B9709143E1F593F0000001 PUSH32 0x30644E5AAF0A66B91F8030DA595E7D1C6787B9B45FC54C546729ACF1FF053609 DUP3 MULMOD SWAP1 POP PUSH32 0x30644E72E131A029B85045B68181585D2833E84879B9709143E1F593F0000001 DUP3 DUP3 MULMOD SWAP2 POP PUSH0 DUP5 ADD MLOAD PUSH32 0x30644E72E131A029B85045B68181585D2833E84879B9709143E1F593F0000001 DUP2 DUP5 MULMOD SWAP3 POP PUSH32 0x30644E72E131A029B85045B68181585D2833E84879B9709143E1F593F0000001 DUP2 DUP5 MULMOD SWAP3 POP DUP3 PUSH1 0x80 DUP7 ADD MSTORE POP POP POP POP POP JUMP JUMPDEST PUSH1 0x40 MLOAD PUSH2 0x240 DUP2 ADD PUSH2 0x160 DUP3 ADD MLOAD DUP2 MSTORE PUSH2 0x180 DUP3 ADD MLOAD PUSH1 0x20 DUP3 ADD MSTORE PUSH2 0x280 DUP4 ADD CALLDATALOAD PUSH1 0x40 DUP3 ADD MSTORE PUSH2 0x2A0 DUP4 ADD CALLDATALOAD PUSH1 0x60 DUP3 ADD MSTORE PUSH2 0x220 DUP4 ADD CALLDATALOAD PUSH1 0x80 DUP3 ADD MSTORE PUSH2 0x240 DUP4 ADD CALLDATALOAD PUSH1 0xA0 DUP3 ADD MSTORE PUSH2 0x2C0 DUP4 ADD CALLDATALOAD PUSH1 0xC0 DUP3 ADD MSTORE PUSH2 0x2E0 DUP4 ADD CALLDATALOAD PUSH1 0xE0 DUP3 ADD MSTORE PUSH1 0x60 DUP3 ADD MLOAD PUSH2 0x100 DUP3 ADD MSTORE PUSH2 0x1E0 DUP3 ADD MLOAD PUSH2 0x120 DUP3 ADD MSTORE PUSH1 0x20 DUP2 PUSH2 0x140 DUP4 PUSH1 0x2 GAS STATICCALL DUP1 PUSH2 0x182D JUMPI PUSH2 0x182C PUSH2 0x7F5 JUMP JUMPDEST JUMPDEST PUSH32 0x30644E72E131A029B85045B68181585D2833E84879B9709143E1F593F0000001 DUP3 MLOAD MOD SWAP1 POP DUP2 PUSH1 0x40 DUP2 ADD SWAP3 POP PUSH2 0x280 DUP6 ADD CALLDATALOAD DUP2 MSTORE PUSH2 0x2A0 DUP6 ADD CALLDATALOAD PUSH1 0x20 DUP3 ADD MSTORE PUSH2 0x187D DUP4 DUP4 PUSH2 0x2C0 DUP9 ADD DUP5 PUSH2 0x2BE1 JUMP JUMPDEST PUSH2 0x160 DUP5 ADD PUSH2 0x1892 DUP5 DUP5 PUSH2 0x220 DUP10 ADD DUP5 PUSH2 0x2BE1 JUMP JUMPDEST PUSH2 0x140 DUP6 ADD PUSH2 0x18A6 DUP5 PUSH2 0x260 DUP10 ADD DUP4 PUSH2 0x2C37 JUMP JUMPDEST DUP5 PUSH1 0x40 DUP2 ADD SWAP6 POP PUSH32 0x1FA4BE93B5E7F7E674D5059B63554FAB99638B304ED8310E9FA44C281AC9B03B DUP2 MSTORE PUSH32 0x1A01AE7FAC6228E39D3CB5A5E71FD31160F3241E79A5F48FFB3737E6C389B721 PUSH1 0x20 DUP3 ADD MSTORE DUP2 MLOAD PUSH1 0x40 DUP3 ADD MSTORE PUSH1 0x40 DUP2 PUSH1 0x60 DUP4 PUSH1 0x7 GAS STATICCALL DUP1 PUSH2 0x1915 JUMPI PUSH2 0x1914 PUSH2 0x796 JUMP JUMPDEST JUMPDEST PUSH1 0x20 DUP3 ADD DUP1 MLOAD PUSH32 0x30644E72E131A029B85045B68181585D97816A916871CA8D3C208C16D87CFD47 SUB DUP2 MSTORE PUSH2 0x194B DUP9 DUP5 DUP8 DUP9 PUSH2 0x2AAD JUMP JUMPDEST DUP8 PUSH1 0x40 DUP10 ADD SWAP9 POP PUSH2 0x1966 DUP10 PUSH1 0x60 DUP13 ADD MLOAD PUSH2 0x280 DUP15 ADD DUP5 PUSH2 0x2B5C JUMP JUMPDEST PUSH32 0x30644E72E131A029B85045B68181585D2833E84879B9709143E1F593F0000001 PUSH32 0x2A734EBB326341EFA19B0361D9130CD47B26B7488DC6D26EECCD4F3EB878331A PUSH1 0x60 DUP13 ADD MLOAD MULMOD PUSH32 0x30644E72E131A029B85045B68181585D2833E84879B9709143E1F593F0000001 DUP2 DUP11 MULMOD SWAP9 POP PUSH2 0x19E4 DUP11 DUP11 PUSH2 0x2C0 DUP16 ADD DUP6 PUSH2 0x2BE1 JUMP JUMPDEST PUSH2 0x19F0 DUP11 DUP4 DUP10 DUP11 PUSH2 0x2AAD JUMP JUMPDEST PUSH1 0x20 DUP9 ADD DUP1 MLOAD PUSH32 0x30644E72E131A029B85045B68181585D97816A916871CA8D3C208C16D87CFD47 SUB DUP2 MSTORE DUP8 MLOAD DUP12 MSTORE PUSH1 0x20 DUP9 ADD MLOAD PUSH1 0x20 DUP13 ADD MSTORE PUSH32 0x198E9393920D483A7260BFB731FB5D25F1AA493335A9E71297E485B7AEF312C2 PUSH1 0x40 DUP13 ADD MSTORE PUSH32 0x1800DEEF121F1E76426A00665E5C4479674322D4F75EDADD46DEBD5CD992F6ED PUSH1 0x60 DUP13 ADD MSTORE PUSH32 0x90689D0585FF075EC9E99AD690C3395BC4B313370B38EF355ACDADCD122975B PUSH1 0x80 DUP13 ADD MSTORE PUSH32 0x12C85EA5DB8C6DEB4AAB71808DCB408FE3D1E7690C43D37B4CE6CC0166FA7DAA PUSH1 0xA0 DUP13 ADD MSTORE DUP9 MLOAD PUSH1 0xC0 DUP13 ADD MSTORE PUSH1 0x20 DUP10 ADD MLOAD PUSH1 0xE0 DUP13 ADD MSTORE PUSH32 0x22F1ACBB03C4508760C2430AF35865E7CDF9F3EB1224504FDCC3708DDB954A48 PUSH2 0x100 DUP13 ADD MSTORE PUSH32 0x2A344FAD01C2ED0ED73142AE1752429EAEA515C6F3F6B941103CC21C2308E1CB PUSH2 0x120 DUP13 ADD MSTORE PUSH32 0x159F15B842BA9C8449AA3268F981010D4C7142E5193473D80B464E964845C3F8 PUSH2 0x140 DUP13 ADD MSTORE PUSH32 0xEFD30AC7B6F8D0D3CCBC2207587C2ACBAD1532DC0293F0D034CF8258CD428B3 PUSH2 0x160 DUP13 ADD MSTORE PUSH2 0x1B76 DUP12 PUSH2 0x1B85 JUMP JUMPDEST POP POP POP POP POP POP POP POP POP POP POP POP POP JUMP JUMPDEST PUSH1 0x40 MLOAD PUSH1 0x20 PUSH0 PUSH2 0x180 DUP5 PUSH1 0x8 GAS STATICCALL DUP1 PUSH2 0x1BA1 JUMPI PUSH2 0x1BA0 PUSH2 0x737 JUMP JUMPDEST JUMPDEST PUSH0 MLOAD DUP1 PUSH2 0x200 DUP5 ADD MSTORE POP POP POP POP JUMP JUMPDEST PUSH1 0x40 MLOAD PUSH2 0x240 PUSH1 0x40 MLOAD ADD PUSH1 0x20 DUP2 ADD PUSH1 0x40 DUP3 ADD PUSH2 0x1E0 DUP5 ADD MLOAD DUP1 PUSH2 0x160 DUP7 ADD PUSH1 0xE0 DUP8 ADD MLOAD PUSH2 0x160 DUP9 ADD MSTORE PUSH2 0x100 DUP8 ADD MLOAD PUSH2 0x180 DUP9 ADD MSTORE PUSH2 0x120 DUP8 ADD MLOAD PUSH2 0x140 DUP9 ADD MSTORE PUSH2 0x1C03 DUP7 DUP4 PUSH0 DUP12 ADD PUSH2 0x160 DUP12 ADD PUSH2 0x2BE1 JUMP JUMPDEST PUSH2 0x1C16 DUP3 PUSH2 0x180 DUP11 ADD PUSH2 0x140 DUP11 ADD PUSH2 0x2C37 JUMP JUMPDEST PUSH32 0x30644E72E131A029B85045B68181585D2833E84879B9709143E1F593F0000001 DUP4 DUP4 MULMOD SWAP2 POP PUSH2 0x1C4B DUP7 DUP4 PUSH1 0x40 DUP12 ADD DUP5 PUSH2 0x2BE1 JUMP JUMPDEST PUSH2 0x1C5E DUP3 PUSH2 0x1A0 DUP11 ADD PUSH2 0x140 DUP11 ADD PUSH2 0x2C37 JUMP JUMPDEST PUSH32 0x30644E72E131A029B85045B68181585D2833E84879B9709143E1F593F0000001 DUP4 DUP4 MULMOD SWAP2 POP PUSH2 0x1C93 DUP7 DUP4 PUSH1 0x80 DUP12 ADD DUP5 PUSH2 0x2BE1 JUMP JUMPDEST PUSH2 0x1CA6 DUP3 PUSH2 0x1C0 DUP11 ADD PUSH2 0x140 DUP11 ADD PUSH2 0x2C37 JUMP JUMPDEST PUSH32 0x30644E72E131A029B85045B68181585D2833E84879B9709143E1F593F0000001 DUP4 DUP4 MULMOD SWAP2 POP PUSH32 0x2706EFCAF27FEE06C1B6CFF51ED3D6FA1A698AE589D9EDA334B68FB5B2AFFD30 DUP7 MSTORE PUSH32 0x29B98211FCA4D76FF8F1CEF1ED55AE8F5482BF98A9B7ACFBC192D14C1B538CE1 DUP6 MSTORE PUSH2 0x1D1E DUP5 DUP4 DUP9 DUP5 PUSH2 0x2B8F JUMP JUMPDEST PUSH2 0x1D31 DUP3 PUSH2 0x1E0 DUP11 ADD PUSH2 0x140 DUP11 ADD PUSH2 0x2C37 JUMP JUMPDEST PUSH32 0x30644E72E131A029B85045B68181585D2833E84879B9709143E1F593F0000001 DUP4 DUP4 MULMOD SWAP2 POP PUSH32 0x2A19DDEA94E1D5D2CC1F74D838C54C1CFB3E09829464520CE2F5C5C01F33B0A9 DUP7 MSTORE PUSH32 0x160BF19AB232A0EB2DCFE41DA72A964C469DCF10A38276746B7516C75A24BE77 DUP6 MSTORE PUSH2 0x1DA9 DUP5 DUP4 DUP9 DUP5 PUSH2 0x2B8F JUMP JUMPDEST PUSH2 0x1DBC DUP3 PUSH2 0x200 DUP11 ADD PUSH2 0x140 DUP11 ADD PUSH2 0x2C37 JUMP JUMPDEST PUSH2 0x300 DUP9 ADD PUSH32 0x30644E72E131A029B85045B68181585D2833E84879B9709143E1F593F0000001 DUP5 DUP5 MULMOD SWAP3 POP PUSH32 0x194020F69D21BC903657A688F182302B7FB073CE4E0A2530BFDA1FFA58B792FA DUP8 MSTORE PUSH32 0x132B4B05A659EB1C6164D8BF5093B1A6371A2A1B20694E5E6CB5A8C8BE9D83F9 DUP7 MSTORE PUSH2 0x1E39 DUP6 DUP5 DUP10 DUP6 PUSH2 0x2B8F JUMP JUMPDEST PUSH2 0x1E48 DUP4 DUP3 PUSH2 0x140 DUP12 ADD PUSH2 0x2C37 JUMP JUMPDEST PUSH1 0x20 DUP2 ADD SWAP1 POP POP POP POP POP POP POP POP POP POP JUMP JUMPDEST PUSH1 0x40 MLOAD PUSH2 0x240 PUSH1 0x40 MLOAD ADD PUSH5 0x67616D6D61 DUP2 MSTORE PUSH1 0x60 DUP3 ADD MLOAD PUSH1 0x20 DUP3 ADD MSTORE PUSH1 0xE0 DUP3 ADD MLOAD PUSH1 0x40 DUP3 ADD MSTORE PUSH2 0x100 DUP3 ADD MLOAD PUSH1 0x60 DUP3 ADD MSTORE PUSH1 0xC0 PUSH0 DUP5 ADD PUSH1 0x80 DUP4 ADD CALLDATACOPY PUSH32 0x2706EFCAF27FEE06C1B6CFF51ED3D6FA1A698AE589D9EDA334B68FB5B2AFFD30 PUSH2 0x140 DUP3 ADD MSTORE PUSH32 0x29B98211FCA4D76FF8F1CEF1ED55AE8F5482BF98A9B7ACFBC192D14C1B538CE1 PUSH2 0x160 DUP3 ADD MSTORE PUSH32 0x2A19DDEA94E1D5D2CC1F74D838C54C1CFB3E09829464520CE2F5C5C01F33B0A9 PUSH2 0x180 DUP3 ADD MSTORE PUSH32 0x160BF19AB232A0EB2DCFE41DA72A964C469DCF10A38276746B7516C75A24BE77 PUSH2 0x1A0 DUP3 ADD MSTORE PUSH2 0x1C0 PUSH32 0x194020F69D21BC903657A688F182302B7FB073CE4E0A2530BFDA1FFA58B792FA DUP2 DUP4 ADD MSTORE PUSH32 0x132B4B05A659EB1C6164D8BF5093B1A6371A2A1B20694E5E6CB5A8C8BE9D83F9 PUSH1 0x20 DUP3 ADD DUP4 ADD MSTORE PUSH1 0x40 DUP2 ADD SWAP1 POP PUSH2 0x120 DUP4 ADD MLOAD DUP2 DUP4 ADD MSTORE PUSH2 0x180 DUP5 ADD CALLDATALOAD PUSH1 0x20 DUP3 ADD DUP4 ADD MSTORE PUSH2 0x1A0 DUP5 ADD CALLDATALOAD PUSH1 0x40 DUP3 ADD DUP4 ADD MSTORE PUSH2 0x1C0 DUP5 ADD CALLDATALOAD PUSH1 0x60 DUP3 ADD DUP4 ADD MSTORE PUSH2 0x1E0 DUP5 ADD CALLDATALOAD PUSH1 0x80 DUP3 ADD DUP4 ADD MSTORE PUSH2 0x200 DUP5 ADD CALLDATALOAD PUSH1 0xA0 DUP3 ADD DUP4 ADD MSTORE PUSH1 0xC0 DUP2 ADD DUP3 ADD PUSH2 0x300 DUP6 ADD PUSH1 0x20 PUSH1 0x1 MUL DUP2 DUP4 CALLDATACOPY PUSH1 0x20 PUSH1 0x1 MUL DUP3 ADD SWAP2 POP PUSH2 0x260 DUP7 ADD CALLDATALOAD DUP3 MSTORE PUSH1 0x1B PUSH1 0x3 PUSH1 0x1 MUL PUSH1 0x14 ADD PUSH1 0x20 DUP2 MUL PUSH1 0x5 ADD SWAP1 POP PUSH1 0x20 PUSH2 0x1E0 DUP9 ADD DUP3 DUP5 DUP10 ADD PUSH1 0x2 GAS STATICCALL DUP1 PUSH2 0x2025 JUMPI PUSH2 0x2024 PUSH2 0x796 JUMP JUMPDEST JUMPDEST PUSH32 0x30644E72E131A029B85045B68181585D2833E84879B9709143E1F593F0000001 PUSH2 0x1E0 DUP10 ADD MLOAD MOD PUSH2 0x1E0 DUP10 ADD MSTORE POP POP POP POP POP POP POP POP POP JUMP JUMPDEST PUSH1 0x40 MLOAD PUSH2 0x240 PUSH1 0x40 MLOAD ADD PUSH32 0x2BF3F4DC363FC802D3352C6931541A153DB647EBFB22DB363C91A488F5CF72F3 DUP2 MSTORE PUSH32 0x176F8DFEE5D5C0F5C2108136560594BE5401829C32010A1B858E6F730FC669FF PUSH1 0x20 DUP3 ADD MSTORE PUSH2 0x20C8 PUSH1 0x40 DUP3 ADD PUSH2 0x180 DUP6 ADD CALLDATALOAD DUP4 PUSH1 0xE0 DUP7 ADD PUSH2 0x2B29 JUMP JUMPDEST PUSH32 0x2B999CB720D2E11C81964EBAB91945D314BFEA28DFA3BE6288C0836B54286134 DUP2 MSTORE PUSH32 0x11D6DA8D1642D007C5BAFBE0F35B2319F1784D2FDFE5F19BD267175F3A15195D PUSH1 0x20 DUP3 ADD MSTORE PUSH2 0x2128 PUSH1 0x40 DUP3 ADD PUSH2 0x1A0 DUP6 ADD CALLDATALOAD DUP4 PUSH1 0xE0 DUP7 ADD PUSH2 0x2B8F JUMP JUMPDEST PUSH32 0x30644E72E131A029B85045B68181585D2833E84879B9709143E1F593F0000001 PUSH2 0x1A0 DUP5 ADD CALLDATALOAD PUSH2 0x180 DUP6 ADD CALLDATALOAD MULMOD PUSH32 0x1237D31040A0B49B48A56F6819D41636A947C687636B77A4B70CA821A04377AA DUP3 MSTORE PUSH32 0x1ACE2D4DD12779BE79FDB5074DBF0EA105341A38572878EB93899C2E6D51D158 PUSH1 0x20 DUP4 ADD MSTORE PUSH2 0x21B1 PUSH1 0x40 DUP4 ADD DUP3 DUP5 PUSH1 0xE0 DUP8 ADD PUSH2 0x2B8F JUMP JUMPDEST PUSH32 0x25D13C99E787F78227726F7360A5F45F219EAAD4885FA9247B3DF0E5DDA33151 DUP3 MSTORE PUSH32 0x77101F2BC8341C28F7F7189738411C949CB29203CF7D9F97138F8F37DBBCF65 PUSH1 0x20 DUP4 ADD MSTORE PUSH2 0x2211 PUSH1 0x40 DUP4 ADD PUSH2 0x1C0 DUP7 ADD CALLDATALOAD DUP5 PUSH1 0xE0 DUP8 ADD PUSH2 0x2B8F JUMP JUMPDEST PUSH32 0x16B60A19C138871BA7E38F6DF3E7D07DF7588BB021F0CDDB1FC651389EFE7E3A DUP3 MSTORE PUSH32 0x22DA86A709AACE21E60B9B6C34935142BA75A838DFA3E7E198FC71EB39E18CED PUSH1 0x20 DUP4 ADD MSTORE PUSH2 0x226F PUSH1 0x40 DUP4 ADD DUP4 PUSH1 0xE0 DUP7 ADD PUSH1 0xE0 DUP8 ADD PUSH2 0x2AAD JUMP JUMPDEST PUSH2 0x300 DUP5 ADD PUSH2 0x320 DUP6 ADD PUSH0 JUMPDEST PUSH1 0x1 DUP2 LT ISZERO PUSH2 0x22BC JUMPI DUP2 CALLDATALOAD DUP6 MSTORE PUSH1 0x20 DUP3 ADD CALLDATALOAD PUSH1 0x20 DUP7 ADD MSTORE PUSH2 0x22A5 PUSH1 0x40 DUP7 ADD DUP5 CALLDATALOAD DUP8 PUSH1 0xE0 DUP11 ADD PUSH2 0x2B8F JUMP JUMPDEST PUSH1 0x20 DUP4 ADD SWAP3 POP PUSH1 0x40 DUP3 ADD SWAP2 POP PUSH1 0x1 DUP2 ADD SWAP1 POP PUSH2 0x227B JUMP JUMPDEST POP PUSH31 0xD6DBD0066CC13B995B7B9D226FD63B4BEDA3032D9BC61BD04DB110BB47BE24 DUP5 MSTORE PUSH32 0x336ACC575090FD12F7CDD2A7FEA266A8D8773F272849AC70D3E6D538BA31A7C PUSH1 0x20 DUP6 ADD MSTORE PUSH2 0x2317 PUSH1 0x40 DUP6 ADD DUP9 DUP7 PUSH1 0xE0 DUP10 ADD PUSH2 0x2B8F JUMP JUMPDEST PUSH2 0x220 DUP7 ADD CALLDATALOAD DUP5 MSTORE PUSH2 0x240 DUP7 ADD CALLDATALOAD PUSH1 0x20 DUP6 ADD MSTORE PUSH2 0x233C PUSH1 0x40 DUP6 ADD DUP10 DUP7 PUSH1 0xE0 DUP10 ADD PUSH2 0x2B8F JUMP JUMPDEST PUSH2 0x2351 DUP5 PUSH1 0xA0 DUP8 ADD PUSH1 0xE0 DUP9 ADD PUSH1 0xE0 DUP10 ADD PUSH2 0x2AAD JUMP JUMPDEST POP POP POP POP POP POP POP POP JUMP JUMPDEST PUSH1 0x40 MLOAD PUSH1 0x20 DUP2 ADD MLOAD PUSH1 0x40 DUP3 ADD MLOAD PUSH1 0x60 DUP4 ADD MLOAD PUSH0 DUP5 ADD MLOAD PUSH32 0x30644E72E131A029B85045B68181585D2833E84879B9709143E1F593F0000001 DUP5 PUSH2 0x260 DUP9 ADD CALLDATALOAD MULMOD PUSH32 0x30644E72E131A029B85045B68181585D2833E84879B9709143E1F593F0000001 PUSH2 0x1E0 DUP9 ADD CALLDATALOAD DUP7 MULMOD PUSH32 0x30644E72E131A029B85045B68181585D2833E84879B9709143E1F593F0000001 PUSH2 0x180 DUP10 ADD CALLDATALOAD DUP3 ADDMOD SWAP1 POP PUSH32 0x30644E72E131A029B85045B68181585D2833E84879B9709143E1F593F0000001 DUP6 DUP3 ADDMOD SWAP1 POP PUSH32 0x30644E72E131A029B85045B68181585D2833E84879B9709143E1F593F0000001 PUSH2 0x200 DUP10 ADD CALLDATALOAD DUP8 MULMOD PUSH32 0x30644E72E131A029B85045B68181585D2833E84879B9709143E1F593F0000001 PUSH2 0x1A0 DUP11 ADD CALLDATALOAD DUP3 ADDMOD SWAP1 POP PUSH32 0x30644E72E131A029B85045B68181585D2833E84879B9709143E1F593F0000001 DUP7 DUP3 ADDMOD SWAP1 POP PUSH32 0x30644E72E131A029B85045B68181585D2833E84879B9709143E1F593F0000001 DUP3 DUP5 MULMOD PUSH32 0x30644E72E131A029B85045B68181585D2833E84879B9709143E1F593F0000001 DUP3 DUP3 MULMOD SWAP1 POP PUSH32 0x30644E72E131A029B85045B68181585D2833E84879B9709143E1F593F0000001 DUP6 DUP3 MULMOD SWAP1 POP PUSH32 0x30644E72E131A029B85045B68181585D2833E84879B9709143E1F593F0000001 PUSH1 0x5 DUP1 MULMOD PUSH32 0x30644E72E131A029B85045B68181585D2833E84879B9709143E1F593F0000001 DUP8 DUP11 MULMOD PUSH32 0x30644E72E131A029B85045B68181585D2833E84879B9709143E1F593F0000001 PUSH2 0x180 DUP14 ADD CALLDATALOAD DUP3 ADDMOD SWAP6 POP PUSH32 0x30644E72E131A029B85045B68181585D2833E84879B9709143E1F593F0000001 DUP10 DUP8 ADDMOD SWAP6 POP PUSH32 0x30644E72E131A029B85045B68181585D2833E84879B9709143E1F593F0000001 PUSH1 0x5 DUP3 MULMOD SWAP5 POP PUSH32 0x30644E72E131A029B85045B68181585D2833E84879B9709143E1F593F0000001 PUSH2 0x1A0 DUP14 ADD CALLDATALOAD DUP7 ADDMOD SWAP5 POP PUSH32 0x30644E72E131A029B85045B68181585D2833E84879B9709143E1F593F0000001 DUP10 DUP7 ADDMOD SWAP5 POP PUSH32 0x30644E72E131A029B85045B68181585D2833E84879B9709143E1F593F0000001 DUP3 DUP3 MULMOD SWAP4 POP PUSH32 0x30644E72E131A029B85045B68181585D2833E84879B9709143E1F593F0000001 PUSH2 0x1C0 DUP14 ADD CALLDATALOAD DUP6 ADDMOD SWAP4 POP PUSH32 0x30644E72E131A029B85045B68181585D2833E84879B9709143E1F593F0000001 DUP10 DUP6 ADDMOD SWAP4 POP PUSH32 0x30644E72E131A029B85045B68181585D2833E84879B9709143E1F593F0000001 DUP6 DUP8 MULMOD PUSH32 0x30644E72E131A029B85045B68181585D2833E84879B9709143E1F593F0000001 DUP6 DUP3 MULMOD SWAP1 POP DUP1 PUSH32 0x30644E72E131A029B85045B68181585D2833E84879B9709143E1F593F0000001 SUB SWAP1 POP PUSH32 0x30644E72E131A029B85045B68181585D2833E84879B9709143E1F593F0000001 DUP9 DUP3 MULMOD SWAP1 POP PUSH32 0x30644E72E131A029B85045B68181585D2833E84879B9709143E1F593F0000001 PUSH1 0x80 DUP14 ADD MLOAD DUP3 ADDMOD SWAP1 POP PUSH2 0x2751 DUP2 DUP6 DUP16 PUSH2 0x205E JUMP JUMPDEST POP POP POP POP POP POP POP POP POP POP POP POP POP JUMP JUMPDEST PUSH1 0x40 MLOAD PUSH1 0x2 PUSH4 0x2000000 ADD PUSH2 0x240 PUSH1 0x40 MLOAD ADD PUSH2 0x2781 DUP2 DUP4 PUSH1 0x60 DUP7 ADD MLOAD PUSH2 0x2C89 JUMP JUMPDEST PUSH2 0x2794 DUP3 DUP3 PUSH2 0x140 DUP9 ADD PUSH1 0xA0 DUP9 ADD PUSH2 0x2B5C JUMP JUMPDEST PUSH2 0x27AA DUP3 PUSH2 0x100 DUP8 ADD PUSH1 0xA0 DUP8 ADD PUSH1 0xA0 DUP9 ADD PUSH2 0x2AEB JUMP JUMPDEST PUSH2 0x27BC DUP3 DUP3 PUSH1 0xA0 DUP8 ADD PUSH1 0xA0 DUP9 ADD PUSH2 0x2B29 JUMP JUMPDEST PUSH2 0x27D1 DUP3 PUSH1 0xC0 DUP8 ADD PUSH1 0xA0 DUP8 ADD PUSH1 0xA0 DUP9 ADD PUSH2 0x2AEB JUMP JUMPDEST PUSH2 0x27E8 DUP3 PUSH2 0x1C0 DUP7 ADD MLOAD PUSH1 0xA0 DUP8 ADD PUSH1 0xA0 DUP9 ADD PUSH2 0x2B29 JUMP JUMPDEST PUSH1 0xC0 DUP5 ADD MLOAD DUP1 PUSH32 0x30644E72E131A029B85045B68181585D97816A916871CA8D3C208C16D87CFD47 SUB SWAP1 POP DUP1 PUSH1 0xC0 DUP7 ADD MSTORE POP POP POP POP POP POP JUMP JUMPDEST PUSH1 0x40 MLOAD PUSH0 PUSH32 0x30644E72E131A029B85045B68181585D2833E84879B9709143E1F593F0000001 PUSH1 0x20 DUP4 ADD MLOAD PUSH2 0x1E0 DUP6 ADD CALLDATALOAD MULMOD SWAP1 POP PUSH32 0x30644E72E131A029B85045B68181585D2833E84879B9709143E1F593F0000001 PUSH1 0x40 DUP4 ADD MLOAD DUP3 ADDMOD SWAP1 POP PUSH32 0x30644E72E131A029B85045B68181585D2833E84879B9709143E1F593F0000001 PUSH2 0x180 DUP5 ADD CALLDATALOAD DUP3 ADDMOD SWAP1 POP PUSH0 PUSH32 0x30644E72E131A029B85045B68181585D2833E84879B9709143E1F593F0000001 PUSH1 0x20 DUP5 ADD MLOAD PUSH2 0x200 DUP7 ADD CALLDATALOAD MULMOD SWAP1 POP PUSH32 0x30644E72E131A029B85045B68181585D2833E84879B9709143E1F593F0000001 PUSH1 0x40 DUP5 ADD MLOAD DUP3 ADDMOD SWAP1 POP PUSH32 0x30644E72E131A029B85045B68181585D2833E84879B9709143E1F593F0000001 PUSH2 0x1A0 DUP6 ADD CALLDATALOAD DUP3 ADDMOD SWAP1 POP PUSH0 PUSH32 0x30644E72E131A029B85045B68181585D2833E84879B9709143E1F593F0000001 PUSH1 0x40 DUP6 ADD MLOAD PUSH2 0x1C0 DUP8 ADD CALLDATALOAD ADDMOD SWAP1 POP PUSH32 0x30644E72E131A029B85045B68181585D2833E84879B9709143E1F593F0000001 DUP3 DUP5 MULMOD SWAP3 POP PUSH32 0x30644E72E131A029B85045B68181585D2833E84879B9709143E1F593F0000001 DUP2 DUP5 MULMOD SWAP3 POP PUSH32 0x30644E72E131A029B85045B68181585D2833E84879B9709143E1F593F0000001 PUSH0 DUP6 ADD MLOAD DUP5 MULMOD SWAP3 POP PUSH32 0x30644E72E131A029B85045B68181585D2833E84879B9709143E1F593F0000001 PUSH2 0x260 DUP7 ADD CALLDATALOAD DUP5 MULMOD SWAP3 POP PUSH32 0x30644E72E131A029B85045B68181585D2833E84879B9709143E1F593F0000001 PUSH2 0x1A0 DUP6 ADD MLOAD DUP5 ADDMOD SWAP3 POP PUSH1 0x80 DUP5 ADD MLOAD SWAP2 POP DUP2 PUSH32 0x30644E72E131A029B85045B68181585D2833E84879B9709143E1F593F0000001 SUB SWAP2 POP PUSH32 0x30644E72E131A029B85045B68181585D2833E84879B9709143E1F593F0000001 DUP3 DUP5 ADDMOD SWAP3 POP DUP3 PUSH32 0x30644E72E131A029B85045B68181585D2833E84879B9709143E1F593F0000001 SUB SWAP3 POP DUP3 PUSH2 0x120 DUP6 ADD MSTORE POP POP POP POP POP JUMP JUMPDEST DUP2 MLOAD DUP5 MSTORE PUSH1 0x20 DUP3 ADD MLOAD PUSH1 0x20 DUP6 ADD MSTORE DUP3 MLOAD PUSH1 0x40 DUP6 ADD MSTORE PUSH1 0x20 DUP4 ADD MLOAD PUSH1 0x60 DUP6 ADD MSTORE PUSH1 0x40 DUP2 PUSH1 0x80 DUP7 PUSH1 0x6 GAS STATICCALL DUP1 PUSH2 0x2AE4 JUMPI PUSH2 0x2AE3 PUSH2 0x5BB JUMP JUMPDEST JUMPDEST POP POP POP POP POP JUMP JUMPDEST DUP2 MLOAD DUP5 MSTORE PUSH1 0x20 DUP3 ADD MLOAD PUSH1 0x20 DUP6 ADD MSTORE DUP3 CALLDATALOAD PUSH1 0x40 DUP6 ADD MSTORE PUSH1 0x20 DUP4 ADD CALLDATALOAD PUSH1 0x60 DUP6 ADD MSTORE PUSH1 0x40 DUP2 PUSH1 0x80 DUP7 PUSH1 0x6 GAS STATICCALL DUP1 PUSH2 0x2B22 JUMPI PUSH2 0x2B21 PUSH2 0x5BB JUMP JUMPDEST JUMPDEST POP POP POP POP POP JUMP JUMPDEST DUP2 MLOAD DUP5 MSTORE PUSH1 0x20 DUP3 ADD MLOAD PUSH1 0x20 DUP6 ADD MSTORE DUP3 PUSH1 0x40 DUP6 ADD MSTORE PUSH1 0x40 DUP2 PUSH1 0x60 DUP7 PUSH1 0x7 GAS STATICCALL DUP1 PUSH2 0x2B55 JUMPI PUSH2 0x2B54 PUSH2 0x5BB JUMP JUMPDEST JUMPDEST POP POP POP POP POP JUMP JUMPDEST DUP2 CALLDATALOAD DUP5 MSTORE PUSH1 0x20 DUP3 ADD CALLDATALOAD PUSH1 0x20 DUP6 ADD MSTORE DUP3 PUSH1 0x40 DUP6 ADD MSTORE PUSH1 0x40 DUP2 PUSH1 0x60 DUP7 PUSH1 0x7 GAS STATICCALL DUP1 PUSH2 0x2B88 JUMPI PUSH2 0x2B87 PUSH2 0x5BB JUMP JUMPDEST JUMPDEST POP POP POP POP POP JUMP JUMPDEST DUP2 MLOAD DUP5 MSTORE PUSH1 0x20 DUP3 ADD MLOAD PUSH1 0x20 DUP6 ADD MSTORE DUP3 PUSH1 0x40 DUP6 ADD MSTORE PUSH1 0x40 DUP5 PUSH1 0x60 DUP7 PUSH1 0x7 GAS STATICCALL DUP2 MLOAD PUSH1 0x40 DUP7 ADD MSTORE PUSH1 0x20 DUP3 ADD MLOAD PUSH1 0x60 DUP7 ADD MSTORE PUSH1 0x40 DUP3 PUSH1 0x80 DUP8 PUSH1 0x6 GAS STATICCALL DUP2 AND SWAP1 POP DUP1 PUSH2 0x2BDA JUMPI PUSH2 0x2BD9 PUSH2 0x5BB JUMP JUMPDEST JUMPDEST POP POP POP POP POP JUMP JUMPDEST PUSH1 0x40 MLOAD DUP3 CALLDATALOAD DUP6 MSTORE PUSH1 0x20 DUP4 ADD CALLDATALOAD PUSH1 0x20 DUP7 ADD MSTORE DUP4 PUSH1 0x40 DUP7 ADD MSTORE PUSH1 0x40 DUP6 PUSH1 0x60 DUP8 PUSH1 0x7 GAS STATICCALL DUP3 MLOAD PUSH1 0x40 DUP8 ADD MSTORE PUSH1 0x20 DUP4 ADD MLOAD PUSH1 0x60 DUP8 ADD MSTORE PUSH1 0x40 DUP4 PUSH1 0x80 DUP9 PUSH1 0x6 GAS STATICCALL DUP2 AND SWAP1 POP DUP1 PUSH2 0x2C2F JUMPI PUSH2 0x2C2E PUSH2 0x5BB JUMP JUMPDEST JUMPDEST POP POP POP POP POP POP JUMP JUMPDEST PUSH32 0x30644E72E131A029B85045B68181585D2833E84879B9709143E1F593F0000001 DUP4 DUP4 CALLDATALOAD MULMOD PUSH32 0x30644E72E131A029B85045B68181585D2833E84879B9709143E1F593F0000001 DUP2 DUP4 MLOAD ADDMOD DUP3 MSTORE POP POP POP POP JUMP JUMPDEST PUSH0 PUSH1 0x20 DUP5 MSTORE PUSH1 0x20 DUP1 DUP6 ADD MSTORE PUSH1 0x20 PUSH1 0x40 DUP6 ADD MSTORE DUP2 PUSH1 0x60 DUP6 ADD MSTORE DUP3 PUSH1 0x80 DUP6 ADD MSTORE PUSH32 0x30644E72E131A029B85045B68181585D2833E84879B9709143E1F593F0000001 PUSH1 0xA0 DUP6 ADD MSTORE PUSH1 0x20 DUP5 PUSH1 0xC0 DUP7 PUSH1 0x5 GAS STATICCALL DUP5 MLOAD SWAP2 POP POP SWAP4 SWAP3 POP POP POP JUMP JUMPDEST POP POP POP POP POP POP POP SWAP5 SWAP4 POP POP POP POP JUMP JUMPDEST PUSH1 0x60 PUSH1 0x40 MLOAD DUP1 PUSH1 0x40 ADD PUSH1 0x40 MSTORE DUP1 PUSH1 0x6 DUP2 MSTORE PUSH1 0x20 ADD PUSH32 0x76312E322E300000000000000000000000000000000000000000000000000000 DUP2 MSTORE POP SWAP1 POP SWAP1 JUMP JUMPDEST PUSH0 PUSH32 0xFFFFFFFF00000000000000000000000000000000000000000000000000000000 DUP3 AND SWAP1 POP SWAP2 SWAP1 POP JUMP JUMPDEST PUSH2 0x2D63 DUP2 PUSH2 0x2D2F JUMP JUMPDEST DUP3 MSTORE POP POP JUMP JUMPDEST PUSH0 PUSH1 0x20 DUP3 ADD SWAP1 POP PUSH2 0x2D7C PUSH0 DUP4 ADD DUP5 PUSH2 0x2D5A JUMP JUMPDEST SWAP3 SWAP2 POP POP JUMP JUMPDEST PUSH0 DUP2 SWAP1 POP SWAP2 SWAP1 POP JUMP JUMPDEST PUSH2 0x2D94 DUP2 PUSH2 0x2D82 JUMP JUMPDEST DUP3 MSTORE POP POP JUMP JUMPDEST PUSH0 PUSH1 0x20 DUP3 ADD SWAP1 POP PUSH2 0x2DAD PUSH0 DUP4 ADD DUP5 PUSH2 0x2D8B JUMP JUMPDEST SWAP3 SWAP2 POP POP JUMP JUMPDEST PUSH0 DUP1 REVERT JUMPDEST PUSH0 DUP1 REVERT JUMPDEST PUSH2 0x2DC4 DUP2 PUSH2 0x2D82 JUMP JUMPDEST DUP2 EQ PUSH2 0x2DCE JUMPI PUSH0 DUP1 REVERT JUMPDEST POP JUMP JUMPDEST PUSH0 DUP2 CALLDATALOAD SWAP1 POP PUSH2 0x2DDF DUP2 PUSH2 0x2DBB JUMP JUMPDEST SWAP3 SWAP2 POP POP JUMP JUMPDEST PUSH0 DUP1 REVERT JUMPDEST PUSH0 DUP1 REVERT JUMPDEST PUSH0 DUP1 REVERT JUMPDEST PUSH0 DUP1 DUP4 PUSH1 0x1F DUP5 ADD SLT PUSH2 0x2E06 JUMPI PUSH2 0x2E05 PUSH2 0x2DE5 JUMP JUMPDEST JUMPDEST DUP3 CALLDATALOAD SWAP1 POP PUSH8 0xFFFFFFFFFFFFFFFF DUP2 GT ISZERO PUSH2 0x2E23 JUMPI PUSH2 0x2E22 PUSH2 0x2DE9 JUMP JUMPDEST JUMPDEST PUSH1 0x20 DUP4 ADD SWAP2 POP DUP4 PUSH1 0x1 DUP3 MUL DUP4 ADD GT ISZERO PUSH2 0x2E3F JUMPI PUSH2 0x2E3E PUSH2 0x2DED JUMP JUMPDEST JUMPDEST SWAP3 POP SWAP3 SWAP1 POP JUMP JUMPDEST PUSH0 DUP1 PUSH0 DUP1 PUSH0 PUSH1 0x60 DUP7 DUP9 SUB SLT ISZERO PUSH2 0x2E5F JUMPI PUSH2 0x2E5E PUSH2 0x2DB3 JUMP JUMPDEST JUMPDEST PUSH0 PUSH2 0x2E6C DUP9 DUP3 DUP10 ADD PUSH2 0x2DD1 JUMP JUMPDEST SWAP6 POP POP PUSH1 0x20 DUP7 ADD CALLDATALOAD PUSH8 0xFFFFFFFFFFFFFFFF DUP2 GT ISZERO PUSH2 0x2E8D JUMPI PUSH2 0x2E8C PUSH2 0x2DB7 JUMP JUMPDEST JUMPDEST PUSH2 0x2E99 DUP9 DUP3 DUP10 ADD PUSH2 0x2DF1 JUMP JUMPDEST SWAP5 POP SWAP5 POP POP PUSH1 0x40 DUP7 ADD CALLDATALOAD PUSH8 0xFFFFFFFFFFFFFFFF DUP2 GT ISZERO PUSH2 0x2EBC JUMPI PUSH2 0x2EBB PUSH2 0x2DB7 JUMP JUMPDEST JUMPDEST PUSH2 0x2EC8 DUP9 DUP3 DUP10 ADD PUSH2 0x2DF1 JUMP JUMPDEST SWAP3 POP SWAP3 POP POP SWAP3 SWAP6 POP SWAP3 SWAP6 SWAP1 SWAP4 POP JUMP JUMPDEST PUSH0 DUP1 PUSH1 0x20 DUP4 DUP6 SUB SLT ISZERO PUSH2 0x2EED JUMPI PUSH2 0x2EEC PUSH2 0x2DB3 JUMP JUMPDEST JUMPDEST PUSH0 DUP4 ADD CALLDATALOAD PUSH8 0xFFFFFFFFFFFFFFFF DUP2 GT ISZERO PUSH2 0x2F0A JUMPI PUSH2 0x2F09 PUSH2 0x2DB7 JUMP JUMPDEST JUMPDEST PUSH2 0x2F16 DUP6 DUP3 DUP7 ADD PUSH2 0x2DF1 JUMP JUMPDEST SWAP3 POP SWAP3 POP POP SWAP3 POP SWAP3 SWAP1 POP JUMP JUMPDEST PUSH0 DUP1 DUP4 PUSH1 0x1F DUP5 ADD SLT PUSH2 0x2F37 JUMPI PUSH2 0x2F36 PUSH2 0x2DE5 JUMP JUMPDEST JUMPDEST DUP3 CALLDATALOAD SWAP1 POP PUSH8 0xFFFFFFFFFFFFFFFF DUP2 GT ISZERO PUSH2 0x2F54 JUMPI PUSH2 0x2F53 PUSH2 0x2DE9 JUMP JUMPDEST JUMPDEST PUSH1 0x20 DUP4 ADD SWAP2 POP DUP4 PUSH1 0x20 DUP3 MUL DUP4 ADD GT ISZERO PUSH2 0x2F70 JUMPI PUSH2 0x2F6F PUSH2 0x2DED JUMP JUMPDEST JUMPDEST SWAP3 POP SWAP3 SWAP1 POP JUMP JUMPDEST PUSH0 DUP1 PUSH0 DUP1 PUSH1 0x40 DUP6 DUP8 SUB SLT ISZERO PUSH2 0x2F8F JUMPI PUSH2 0x2F8E PUSH2 0x2DB3 JUMP JUMPDEST JUMPDEST PUSH0 DUP6 ADD CALLDATALOAD PUSH8 0xFFFFFFFFFFFFFFFF DUP2 GT ISZERO PUSH2 0x2FAC JUMPI PUSH2 0x2FAB PUSH2 0x2DB7 JUMP JUMPDEST JUMPDEST PUSH2 0x2FB8 DUP8 DUP3 DUP9 ADD PUSH2 0x2DF1 JUMP JUMPDEST SWAP5 POP SWAP5 POP POP PUSH1 0x20 DUP6 ADD CALLDATALOAD PUSH8 0xFFFFFFFFFFFFFFFF DUP2 GT ISZERO PUSH2 0x2FDB JUMPI PUSH2 0x2FDA PUSH2 0x2DB7 JUMP JUMPDEST JUMPDEST PUSH2 0x2FE7 DUP8 DUP3 DUP9 ADD PUSH2 0x2F22 JUMP JUMPDEST SWAP3 POP SWAP3 POP POP SWAP3 SWAP6 SWAP2 SWAP5 POP SWAP3 POP JUMP JUMPDEST PUSH0 DUP2 ISZERO ISZERO SWAP1 POP SWAP2 SWAP1 POP JUMP JUMPDEST PUSH2 0x3009 DUP2 PUSH2 0x2FF5 JUMP JUMPDEST DUP3 MSTORE POP POP JUMP JUMPDEST PUSH0 PUSH1 0x20 DUP3 ADD SWAP1 POP PUSH2 0x3022 PUSH0 DUP4 ADD DUP5 PUSH2 0x3000 JUMP JUMPDEST SWAP3 SWAP2 POP POP JUMP JUMPDEST PUSH0 DUP2 MLOAD SWAP1 POP SWAP2 SWAP1 POP JUMP JUMPDEST PUSH0 DUP3 DUP3 MSTORE PUSH1 0x20 DUP3 ADD SWAP1 POP SWAP3 SWAP2 POP POP JUMP JUMPDEST DUP3 DUP2 DUP4 MCOPY PUSH0 DUP4 DUP4 ADD MSTORE POP POP POP JUMP JUMPDEST PUSH0 PUSH1 0x1F NOT PUSH1 0x1F DUP4 ADD AND SWAP1 POP SWAP2 SWAP1 POP JUMP JUMPDEST PUSH0 PUSH2 0x306A DUP3 PUSH2 0x3028 JUMP JUMPDEST PUSH2 0x3074 DUP2 DUP6 PUSH2 0x3032 JUMP JUMPDEST SWAP4 POP PUSH2 0x3084 DUP2 DUP6 PUSH1 0x20 DUP7 ADD PUSH2 0x3042 JUMP JUMPDEST PUSH2 0x308D DUP2 PUSH2 0x3050 JUMP JUMPDEST DUP5 ADD SWAP2 POP POP SWAP3 SWAP2 POP POP JUMP JUMPDEST PUSH0 PUSH1 0x20 DUP3 ADD SWAP1 POP DUP2 DUP2 SUB PUSH0 DUP4 ADD MSTORE PUSH2 0x30B0 DUP2 DUP5 PUSH2 0x3060 JUMP JUMPDEST SWAP1 POP SWAP3 SWAP2 POP POP JUMP JUMPDEST PUSH0 DUP1 REVERT JUMPDEST PUSH0 DUP1 REVERT JUMPDEST PUSH0 DUP1 DUP6 DUP6 GT ISZERO PUSH2 0x30D3 JUMPI PUSH2 0x30D2 PUSH2 0x30B8 JUMP JUMPDEST JUMPDEST DUP4 DUP7 GT ISZERO PUSH2 0x30E4 JUMPI PUSH2 0x30E3 PUSH2 0x30BC JUMP JUMPDEST JUMPDEST PUSH1 0x1 DUP6 MUL DUP4 ADD SWAP2 POP DUP5 DUP7 SUB SWAP1 POP SWAP5 POP SWAP5 SWAP3 POP POP POP JUMP JUMPDEST PUSH0 DUP3 SWAP1 POP SWAP3 SWAP2 POP POP JUMP JUMPDEST PUSH0 DUP3 DUP3 SHL SWAP1 POP SWAP3 SWAP2 POP POP JUMP JUMPDEST PUSH0 PUSH2 0x311B DUP4 DUP4 PUSH2 0x30FA JUMP JUMPDEST DUP3 PUSH2 0x3126 DUP2 CALLDATALOAD PUSH2 0x2D2F JUMP JUMPDEST SWAP3 POP PUSH1 0x4 DUP3 LT ISZERO PUSH2 0x3166 JUMPI PUSH2 0x3161 PUSH32 0xFFFFFFFF00000000000000000000000000000000000000000000000000000000 DUP4 PUSH1 0x4 SUB PUSH1 0x8 MUL PUSH2 0x3104 JUMP JUMPDEST DUP4 AND SWAP3 POP JUMPDEST POP POP SWAP3 SWAP2 POP POP JUMP JUMPDEST PUSH0 PUSH1 0x40 DUP3 ADD SWAP1 POP PUSH2 0x3181 PUSH0 DUP4 ADD DUP6 PUSH2 0x2D5A JUMP JUMPDEST PUSH2 0x318E PUSH1 0x20 DUP4 ADD DUP5 PUSH2 0x2D5A JUMP JUMPDEST SWAP4 SWAP3 POP POP POP JUMP JUMPDEST PUSH32 0x4E487B7100000000000000000000000000000000000000000000000000000000 PUSH0 MSTORE PUSH1 0x41 PUSH1 0x4 MSTORE PUSH1 0x24 PUSH0 REVERT JUMPDEST PUSH32 0x4E487B7100000000000000000000000000000000000000000000000000000000 PUSH0 MSTORE PUSH1 0x32 PUSH1 0x4 MSTORE PUSH1 0x24 PUSH0 REVERT JUMPDEST PUSH0 DUP3 DUP3 MSTORE PUSH1 0x20 DUP3 ADD SWAP1 POP SWAP3 SWAP2 POP POP JUMP JUMPDEST DUP3 DUP2 DUP4 CALLDATACOPY PUSH0 DUP4 DUP4 ADD MSTORE POP POP POP JUMP JUMPDEST PUSH0 PUSH2 0x3218 DUP4 DUP6 PUSH2 0x31EF JUMP JUMPDEST SWAP4 POP PUSH2 0x3225 DUP4 DUP6 DUP5 PUSH2 0x31FF JUMP JUMPDEST PUSH2 0x322E DUP4 PUSH2 0x3050 JUMP JUMPDEST DUP5 ADD SWAP1 POP SWAP4 SWAP3 POP POP POP JUMP JUMPDEST PUSH0 DUP2 MLOAD SWAP1 POP SWAP2 SWAP1 POP JUMP JUMPDEST PUSH0 DUP3 DUP3 MSTORE PUSH1 0x20 DUP3 ADD SWAP1 POP SWAP3 SWAP2 POP POP JUMP JUMPDEST PUSH0 DUP2 SWAP1 POP PUSH1 0x20 DUP3 ADD SWAP1 POP SWAP2 SWAP1 POP JUMP JUMPDEST PUSH0 DUP2 SWAP1 POP SWAP2 SWAP1 POP JUMP JUMPDEST PUSH2 0x3274 DUP2 PUSH2 0x3262 JUMP JUMPDEST DUP3 MSTORE POP POP JUMP JUMPDEST PUSH0 PUSH2 0x3285 DUP4 DUP4 PUSH2 0x326B JUMP JUMPDEST PUSH1 0x20 DUP4 ADD SWAP1 POP SWAP3 SWAP2 POP POP JUMP JUMPDEST PUSH0 PUSH1 0x20 DUP3 ADD SWAP1 POP SWAP2 SWAP1 POP JUMP JUMPDEST PUSH0 PUSH2 0x32A7 DUP3 PUSH2 0x3239 JUMP JUMPDEST PUSH2 0x32B1 DUP2 DUP6 PUSH2 0x3243 JUMP JUMPDEST SWAP4 POP PUSH2 0x32BC DUP4 PUSH2 0x3253 JUMP JUMPDEST DUP1 PUSH0 JUMPDEST DUP4 DUP2 LT ISZERO PUSH2 0x32EC JUMPI DUP2 MLOAD PUSH2 0x32D3 DUP9 DUP3 PUSH2 0x327A JUMP JUMPDEST SWAP8 POP PUSH2 0x32DE DUP4 PUSH2 0x3291 JUMP JUMPDEST SWAP3 POP POP PUSH1 0x1 DUP2 ADD SWAP1 POP PUSH2 0x32BF JUMP JUMPDEST POP DUP6 SWAP4 POP POP POP POP SWAP3 SWAP2 POP POP JUMP JUMPDEST PUSH0 PUSH1 0x40 DUP3 ADD SWAP1 POP DUP2 DUP2 SUB PUSH0 DUP4 ADD MSTORE PUSH2 0x3312 DUP2 DUP6 DUP8 PUSH2 0x320D JUMP JUMPDEST SWAP1 POP DUP2 DUP2 SUB PUSH1 0x20 DUP4 ADD MSTORE PUSH2 0x3326 DUP2 DUP5 PUSH2 0x329D JUMP JUMPDEST SWAP1 POP SWAP5 SWAP4 POP POP POP POP JUMP JUMPDEST PUSH2 0x3339 DUP2 PUSH2 0x2FF5 JUMP JUMPDEST DUP2 EQ PUSH2 0x3343 JUMPI PUSH0 DUP1 REVERT JUMPDEST POP JUMP JUMPDEST PUSH0 DUP2 MLOAD SWAP1 POP PUSH2 0x3354 DUP2 PUSH2 0x3330 JUMP JUMPDEST SWAP3 SWAP2 POP POP JUMP JUMPDEST PUSH0 PUSH1 0x20 DUP3 DUP5 SUB SLT ISZERO PUSH2 0x336F JUMPI PUSH2 0x336E PUSH2 0x2DB3 JUMP JUMPDEST JUMPDEST PUSH0 PUSH2 0x337C DUP5 DUP3 DUP6 ADD PUSH2 0x3346 JUMP JUMPDEST SWAP2 POP POP SWAP3 SWAP2 POP POP JUMP JUMPDEST PUSH0 DUP2 SWAP1 POP SWAP3 SWAP2 POP POP JUMP JUMPDEST PUSH0 PUSH2 0x339A DUP4 DUP6 PUSH2 0x3385 JUMP JUMPDEST SWAP4 POP PUSH2 0x33A7 DUP4 DUP6 DUP5 PUSH2 0x31FF JUMP JUMPDEST DUP3 DUP5 ADD SWAP1 POP SWAP4 SWAP3 POP POP POP JUMP JUMPDEST PUSH0 PUSH2 0x33BF DUP3 DUP5 DUP7 PUSH2 0x338F JUMP JUMPDEST SWAP2 POP DUP2 SWAP1 POP SWAP4 SWAP3 POP POP POP JUMP JUMPDEST PUSH0 DUP2 MLOAD SWAP1 POP PUSH2 0x33D9 DUP2 PUSH2 0x2DBB JUMP JUMPDEST SWAP3 SWAP2 POP POP JUMP JUMPDEST PUSH0 PUSH1 0x20 DUP3 DUP5 SUB SLT ISZERO PUSH2 0x33F4 JUMPI PUSH2 0x33F3 PUSH2 0x2DB3 JUMP JUMPDEST JUMPDEST PUSH0 PUSH2 0x3401 DUP5 DUP3 DUP6 ADD PUSH2 0x33CB JUMP JUMPDEST SWAP2 POP POP SWAP3 SWAP2 POP POP JUMP INVALID LOG2 PUSH5 0x6970667358 0x22 SLT KECCAK256 BASEFEE 0xF BLOBHASH 0x1E 0xEF 0xD5 DUP8 PUSH4 0x6B15FD69 GAS PUSH20 0x5A2B590FC64FEA5BA78A1BAF1D8B75050CC56473 PUSH16 0x6C634300081A00330000000000000000 "
		},
		"gasEstimates": {
			"creation": {
				"codeDepositCost": "2675200",
				"executionCost": "2898",
				"totalCost": "2678098"
			},
			"external": {
				"VERIFIER_HASH()": "337",
				"VERSION()": "infinite",
				"Verify(bytes,uint256[])": "infinite",
				"hashPublicValues(bytes)": "infinite",
				"verifier_bytes4()": "355",
				"verifyProof(bytes32,bytes,bytes)": "infinite"
			}
		},
		"methodIdentifiers": {
			"VERIFIER_HASH()": "2a510436",
			"VERSION()": "ffa1ad74",
			"Verify(bytes,uint256[])": "7e4f7a8a",
			"hashPublicValues(bytes)": "6b61d8e7",
			"verifier_bytes4()": "07fca93c",
			"verifyProof(bytes32,bytes,bytes)": "41493c60"
		}
	},
	"abi": [
		{
			"inputs": [],
			"name": "InvalidProof",
			"type": "error"
		},
		{
			"inputs": [
				{
					"internalType": "bytes4",
					"name": "received",
					"type": "bytes4"
				},
				{
					"internalType": "bytes4",
					"name": "expected",
					"type": "bytes4"
				}
			],
			"name": "WrongVerifierSelector",
			"type": "error"
		},
		{
			"inputs": [],
			"name": "VERIFIER_HASH",
			"outputs": [
				{
					"internalType": "bytes32",
					"name": "",
					"type": "bytes32"
				}
			],
			"stateMutability": "pure",
			"type": "function"
		},
		{
			"inputs": [],
			"name": "VERSION",
			"outputs": [
				{
					"internalType": "string",
					"name": "",
					"type": "string"
				}
			],
			"stateMutability": "pure",
			"type": "function"
		},
		{
			"inputs": [
				{
					"internalType": "bytes",
					"name": "proof",
					"type": "bytes"
				},
				{
					"internalType": "uint256[]",
					"name": "public_inputs",
					"type": "uint256[]"
				}
			],
			"name": "Verify",
			"outputs": [
				{
					"internalType": "bool",
					"name": "success",
					"type": "bool"
				}
			],
			"stateMutability": "view",
			"type": "function"
		},
		{
			"inputs": [
				{
					"internalType": "bytes",
					"name": "publicValues",
					"type": "bytes"
				}
			],
			"name": "hashPublicValues",
			"outputs": [
				{
					"internalType": "bytes32",
					"name": "",
					"type": "bytes32"
				}
			],
			"stateMutability": "pure",
			"type": "function"
		},
		{
			"inputs": [],
			"name": "verifier_bytes4",
			"outputs": [
				{
					"internalType": "bytes4",
					"name": "",
					"type": "bytes4"
				}
			],
			"stateMutability": "pure",
			"type": "function"
		},
		{
			"inputs": [
				{
					"internalType": "bytes32",
					"name": "programVKey",
					"type": "bytes32"
				},
				{
					"internalType": "bytes",
					"name": "publicValues",
					"type": "bytes"
				},
				{
					"internalType": "bytes",
					"name": "proofBytes",
					"type": "bytes"
				}
			],
			"name": "verifyProof",
			"outputs": [],
			"stateMutability": "view",
			"type": "function"
		}
	]
}